:020000040002F8
:10600000D05C0020F9620200016302000363020019
:10601000056302000763020009630200000000003C
:106020000000000000000000000000000B63020000
:106030000D630200000000000F6302001163020004
:106040007166020013630200716A020013630200AA
:106050001363020013630200A964020013630200C9
:106060001363020013630200136302001363020050
:106070001363020013630200136302001363020040
:1060800013630200C9660200136302001363020077
:106090004D670200136302005167020013630200A0
:1060A0001363020013630200136302001363020010
:1060B00013630200136302000000000000000000F0
:1060C00013630200136302001363020013630200F0
:1060D0001363020013630200136302000000000058
:1060E00000000000000000000000000000000000B0
:1060F00000000000000000000000000000000000A0
:10610000000000000000000000000000000000008F
:10611000000000000000000000000000000000007F
:10612000000000000000000000000000000000006F
:10613000000000000000000000000000000000005F
:10614000000000000000000000000000000000004F
:10615000000000000000000000000000000000003F
:10616000000000000000000000000000000000002F
:10617000000000000000000000000000000000001F
:10618000000000000000000000000000000000000F
:1061900000000000000000000000000000000000FF
:1061A00000000000000000000000000000000000EF
:1061B00000000000000000000000000000000000DF
:1061C00000000000000000000000000000000000CF
:1061D00000000000000000000000000000000000BF
:1061E00000000000000000000000000000000000AF
:1061F000000000000000000000000000000000009F
:10620000DFF80CD000F012F900480047758E02004C
:10621000D05C002030B4044654E8000F0D4644E83A
:106220000053002BF8D1156030BC704730B40446E1
:1062300054E8000F40EA010544E80053002BF7D171
:10624000156030BC704730B4044654E8000F00EAD3
:10625000010544E80053002BF7D1156030BC7047AE
:1062600030B4044654E8000F80EA010544E80053C6
:10627000002BF7D1156030BC704730B4044654E8A9
:10628000000F00EB010544E80053002BF7D1156027
:1062900030BC704730B4044654E8000FA0EB010551
:1062A00044E80053002BF7D1156030BC704770B440
:1062B00004464FF0000054E8006F0D68AE4207BF7F
:1062C00044E80023012044E800630E60002B1CBF5B
:1062D0000020F0E770BC704730B4044654E8000F6B
:1062E00088422CBF451A054644E80053002BF5D1DF
:1062F000156030BC704700000648804706480047DC
:10630000FEE7FEE7FEE7FEE7FEE7FEE7FEE7FEE765
:10631000FEE7FEE755670200016202002DE9F05F2B
:106320000546002092469B46884606468146402404
:106330001BE0284641464746224600F067F8534690
:106340005A46C01A914110D311461846224600F011
:1063500016F82D1A67EB01084F462246012000214E
:1063600000F00DF817EB00094E41201EA4F10104C6
:10637000DFDC484631462A464346BDE8F09F202AE6
:1063800004DB203A00FA02F1002070479140C2F18C
:10639000200320FA03F319439040704700487047E8
:1063A0000CC2020040EA01039B0703D009E008C9C0
:1063B000121F08C0042AFAD203E011F8013B00F8CA
:1063C000013B521EF9D27047D2B201E000F8012B16
:1063D000491EFBD270470022F6E710B513460A4665
:1063E00004461946FFF7F0FF204610BD421C10F886
:1063F000011B0029FBD1801A7047034611F8012BBD
:1064000000F8012B002AF9D118467047202A04DB36
:10641000203A21FA02F00021704721FA02F3D0401D
:10642000C2F120029140084319467047064C074DBF
:1064300006E0E06840F0010394E807009847103454
:10644000AC42F6D3FFF7E0FE5CC902007CC9020053
:1064500070B58C1810F8015B15F0070301D110F826
:10646000013B2A1106D110F8012B03E010F8016B53
:1064700001F8016B5B1EF9D12B0705D40023521ED6
:106480000DD401F8013BFAE710F8013BCB1A921C3E
:1064900003E013F8015B01F8015B521EF9D5A1423C
:1064A000D8D3002070BD00002DE9F04700268AB047
:1064B000DFF85091B0464FF48075012437460696B8
:1064C000284603F015FB38B1D9F80403204203D065
:1064D000284603F003FB26432D1D64007F1CADB24C
:1064E000082FEDD34FF4BE74204603F001FB48B1F2
:1064F000204603F0F3FA46F0004606AA01210020E8
:1065000003F0D8FA404D16F0FF0F15D001270024F4
:1065100037420DD009EB8401D1F81005D1F81015E0
:10652000C0F3042055F82420C1F3014102B1904783
:106530007F00641C082CEBD3002E5FDA4FF0FF3095
:10654000CDF8108054E0281910F8507F90F9000021
:1065500027F0C008401C3BD007A9404602F033FF9B
:1065600010B34FEA9719404601F054FF55F82070D8
:106570001FB1B9F1030F03D006E0B9F1030F27D122
:1065800004A9404602F027FF4FF0A04101EB88002C
:10659000D0F8000706A9C0F3014A404602F013FFF5
:1065A00018B1BAF1020F03D012E0BAF1030F0FD104
:1065B000B9F1030F08D1BAF1020F1DD002214046F4
:1065C00003F05CFA761CF6B217B149464046B8476C
:1065D000641C042CB7D3002E10D06A460121002081
:1065E00003F068FA06990098884207D0069004984C
:1065F000002634460790A6E70321E0E70AB0BDE88D
:10660000F0870000006000407C32002000F01F0294
:10661000012191404009800000F1E020C0F8801283
:10662000704700F01F02012191404009800000F1F5
:10663000E020C0F80011704700F01F0201219140D6
:106640004009800000F1E020C0F8001270474907BF
:10665000090E002806DA00F00F0000F1E02080F8B3
:10666000141D704700F1E02080F80014704700000E
:1066700070B54FF48076304602F0F4FF114CB5054A
:1066800060B1304602F0F5FF0120C5F808036079DB
:1066900020B9012060712168002088474FF482767C
:1066A000304602F0DFFF00280AD0304602F0E1FF5A
:1066B0000220C5F808032168BDE8704001200847A2
:1066C00070BD0000F82A002007480021C0F84011E2
:1066D000C0F84411C0F84811C0F84C11C0F80011BE
:1066E000C0F8041105F068B80010014000F0C6B908
:1066F00070B50E46144900EB400001EBC00514468E
:10670000E86A183520B101280FD0022805D113E01E
:10671000284600F0E7F9A04201D2002411E0224609
:106720003146284600F016FA0BE0284600F0DAF968
:10673000A042F4D20446F2E73146284600F0DDF9E3
:106740000446204670BD0000483A002004F082BF95
:1067500003F024BFF0B5B5480023021D0178101DD9
:1067600001254FF0805406290BD11678360708D141
:106770000678C6F30316032E06D0042E04D0052E89
:1067800002D0062907D00EE0B4F82463A84FC6F360
:1067900004263E6002E01678360704D10678C6F378
:1067A0000316032E02D0062904D00FE0A24FA14EFB
:1067B0007E670EE01678360708D10678C6F3031612
:1067C000032E06D0042E04D0052E02D0062907D0B1
:1067D0000EE0D4F84462994FC6F342363E6002E0C0
:1067E0001678360704D10678C6F30316032E02D0B6
:1067F000062906D011E0924E376827F0807737607F
:106800000EE01678360708D10678C6F30316032E75
:1068100006D0042E04D0052E02D006290AD011E09D
:106820004FF08046C6F80C31C6F81031834E361F43
:10683000336002E01678360704D10678C6F30316F3
:10684000032E02D0062905D00CE07C4F03266437C6
:106850003E600AE01678360704D10678C6F30316C0
:10686000032E02D006290DD014E0764F05263E6097
:10687000744E78363560734E083633603F263F1DC0
:106880003E6002E01678360704D10678C6F3031698
:10689000052E02D0062957D062E06B4E36686B4F4A
:1068A0003E60694E361D36683F1D3E60664E0836B6
:1068B00036683F1D3E60644E0C3636683F1D3E60B4
:1068C000614E103636683F1D3E605F4E14363668A6
:1068D0003F1D3E605C4E183636685C4F20373E6088
:1068E000594E1C3636683F1D3E60574E203636687E
:1068F0003F1D3E60544E243636683F1D3E60524E6A
:10690000283636683F1D3E604F4E2C3636683F1D98
:106910003E604D4E303636684C4F40373E604A4EF2
:10692000343636683F1D3E60474E383636683F1D68
:106930003E60454E3C3636683F1D3E60424E403616
:1069400036683F1D3E6002E01678360708D10678AB
:10695000C6F30316032E06D0042E04D0052E02D053
:10696000062907D019E0D4F85812394A01F04F012E
:10697000116002E0117809070FD10078C0F303100D
:10698000032803D0042801D0052806D13148016826
:10699000C90702D06FF001010160D4F83001062868
:1069A00008D1D4F83401062804D12B48016841F4F9
:1069B0008061016022487438016841F4700101600F
:1069C000BFF34F8FBFF36F8F4FF01021D1F800024C
:1069D000002803DBD1F80402002822DA1F4A1560E0
:1069E0001F480468002CFCD01524C1F8004205683B
:1069F000002DFCD0C1F8044201680029FCD01360CE
:106A000001680029FCD0BFF34F8F0D48F0380168B2
:106A1000144A01F4E06111430160BFF34F8F00BFDE
:106A2000FDE7124910480860F0BD0000E00F00F0DB
:106A3000403501400DF0ADBA00C007403C050040B4
:106A4000FCED00E0105600400404001020C500409A
:106A5000E40E0040000400403C17004004E5014003
:106A600000E401400400FA050090D003C42B00208C
:106A70000148006800470000002B002010B5124CB0
:106A800002202061606111A0A06104F17800E06142
:106A90004FF4007020620020A06260620BA1A1642C
:106AA000E06204F51E71E1641021A065C4E91410D0
:106AB000E06509A1E01DFFF7A0FC08A12046FFF753
:106AC0009CFC2020A07110BD483A00205465726DD6
:106AD000696E616C000000005254540053454747F2
:106AE000455200000269C1688A4203D88068401A92
:106AF000104400E0501A401E70472DE9F047C4686A
:106B00001746894606464FF000083069A04201D971
:106B1000051B02E0B168201A0D1AB0686D1E001B3B
:106B2000A84200D80546BD4200D33D4670682A46BB
:106B300020444946FFF736FCB0687F1B2C44A8442C
:106B4000A944A04200D10024F460002FDDD14046CA
:106B5000BDE8F0872DE9F04104468846D4E90207F4
:106B6000C51BE168606816460844B54206D941462F
:106B7000FFF718FCB819E060BDE8F0812A464146ED
:106B8000FFF710FC761B08EB050132466068FFF743
:106B900009FCE660F0E70000014A024900F026B86F
:106BA000B7890200602B002002E008C8121F08C14C
:106BB000002AFAD170477047002001E001C1121F7E
:106BC000002AFBD1704700000121202803DA814010
:106BD0000548014003E0402802DA2038814009B12D
:106BE0000120704700207047FC06FFBD2DE9F041F1
:106BF00016460F460446002503E03946B047641C9C
:106C00006D1C20780028F8D12846BDE8F08110B529
:106C100001220221002001F0FDF908B1072810D15E
:106C200007220221012001F0F5F908B1072808D157
:106C300000210A22084601F0EDF908B1072800D129
:106C4000002010BD022001F0EFB8000070B5002454
:106C5000064D06E06868012110F8340003F07AFD63
:106C6000641C28788442F5D3002070BD082B0020D6
:106C7000F8B515460C460646052A01D20720F8BD90
:106C800003F062FE18B903F029FE0028F7D112497B
:106C900000224E600C708D60C1E90422C1E9062219
:106CA0000E4D0DE006EBC4002968009181788DF847
:106CB000011000780A4A694603F09EFD0028DED1E3
:106CC000641EE4B2EED2BDE8F84004480021054A53
:106CD000001D00F07FB80000082B002014BF020048
:106CE000518A02007988020072B603F08DF900BF64
:106CF00002F0CEFF0028FBD111481249401AC40807
:106D0000012000EB044010A103F0DCF811480068FA
:106D1000C00700D000BE022000EB04400EA103F02B
:106D2000D1F8BFF34F8F0B48E43801680E4A01F4E5
:106D3000E06111430160BFF34F8F00BFFDE700002A
:106D4000D4C902008CC90200466174616C2065726E
:106D5000726F7200F0ED00E053797374656D20720C
:106D600065736574000000000400FA050EB500218B
:106D70000091CDE901106A4644F20100FFF7B4FF2B
:106D80000EBD10B58268C368934203D001F0ECFDDC
:106D9000002010BD052010BD29B112B1531E1342B1
:106DA00003D0092070470E207047016083800021C6
:106DB0008160C1600846704710B58268C3689A1A3E
:106DC00083889A4203D801F0D9FD002010BD042029
:106DD00010BD0000084B9B7823B12AB120B1006898
:106DE000037C1BB108207047072070470023037401
:106DF00041744261184670474833002070B504F072
:106E000057FA104800240B21047044700E4D817015
:106E100014206C602C706C70FFF7F8FB06211420B6
:106E2000FFF715FC1420FFF7FCFB0848046006215F
:106E30001120FFF70CFC0548001F0068A860002027
:106E400070BD000048330020282B002008150140A9
:106E50002DE9FC47DFF8789099F8023073B368B3F6
:106E6000052902D20720BDE8FC87436933B3437C80
:106E7000012B25D0002704460025884616468DF8AC
:106E80000050684600F0CEF801A804F067FFC8B1D2
:106E9000012101700F4944600968C0E90218C0E986
:106EA00004769DF8040089F801009DF8000000F0C8
:106EB000DDF81420FFF7C0FB2846D4E70820D2E70E
:106EC0000F46D8E704259DF8000000F0CFF8F3E75F
:106ED00048330020041501400649897839B130B1A2
:106EE000416921B100210174022104F041BC082054
:106EF000704700004833002070B50A4E01460A482A
:106F0000B578FFF73EFF04464DB10020B070711C0C
:106F10000122C81D02F01EFC08B1FFF727FF204622
:106F200070BD00003C2B002054340020F0B5244EEE
:106F300089B01F460D00044672603FD0A8882968BA
:106F400082B22048FFF728FF002835D1A889A96818
:106F500082B21C481030FFF71FFF00282CD12022DE
:106F600019496846FFF71EFA60690690207C00B157
:106F700001208DF814008DF81C70607C00B10E208B
:106F80008DF81500E0680290A068039020680190D9
:106F9000606800900A480D4A6946083002F0A6FB76
:106FA000002809D1B0702068401C05D00449012296
:106FB000491CC81D02F0CEFB09B0F0BD0720FBE75D
:106FC0003C2B00205434002028BF0200E1B802000E
:106FD00010B501461048FFF7EFFE040019D10F4825
:106FE0000F4A0178515C19B1001D03F02DFF02E03A
:106FF0000C3003F011FE60B9084907480839FFF763
:10700000C0FE30B9054901220839044802F0B2FB3C
:107010000446204610BD000064340020442B0020AC
:10702000EC2A002030B5EFF3108172B60D4A946857
:10703000012324B10370002900D162B630BD9360F2
:107040004FF0E023D3F88051074C25401560C3F87A
:107050008041D3F8844154605A17C3F88421002238
:107060000270E8E774340020FC06FFBD0B498A6813
:10707000002A11D000280FD1EFF3108072B60B68F0
:107080004FF0E022C2F800314B68C2F80431002210
:107090008A60002800D162B6704700007434002076
:1070A0002DE9F041064608680C46411C4FF0A04708
:1070B0004FF0010506D005FA00F1C7F80815206861
:1070C00002F0C8FC6068411C02D0002102F0B0FC54
:1070D0003168A069C1F82405607D227D31681043C4
:1070E000C1F86C05D4E900123068C0F81425C0F866
:1070F0000C15207D012815D1A068411C02D000216B
:1071000002F096FCE068411C05D08540C7F80855A0
:10711000E06802F09FFCD4E902123068C0F808254C
:10712000C0F81015BDE8F0812DE9F0410646086869
:107130000C46411C4FF0A0474FF0010506D005FA60
:1071400000F1C7F80815206802F08EFC6068411C49
:1071500002D0002102F075FC3168A069C1F8240555
:10716000607D217D32680843C2F86C05D4E90012C5
:107170003068C0F80C15C0F81425207D012815D101
:10718000A068411C02D0002102F05BFCE068411CB9
:1071900005D08540C7F80855E06802F065FCD4E9E1
:1071A00002123068C0F80825C0F81015BDE8F0815B
:1071B00070B51500044609D00020286034B120685D
:1071C00020B1A079800703D0072070BD0E2070BDCC
:1071D000084600F025FBC0B2142804D02179814272
:1071E00003D8042070BD052070BDE288216800FB33
:1071F00002102860002070BD2DE9FC47002517888B
:107200000646158090F82D001446894630B13A465E
:107210002146484600F018FB051E09D1B0784FF012
:107220000C0A18B32088C846001DB84202D950463F
:10723000BDE8FC87684679DF0028F9D12088032162
:1072400008F8001020881921401C80B2208008F81E
:1072500000102088401C80B2208000EB0801BDF89F
:10726000000004F0CAFC218808442080F078022243
:10727000C8B1218896F9033001F1030C4846BC459A
:10728000D5D8425421884FF0010C491C89B2218085
:1072900000F801C02188491C89B2218009F8013019
:1072A0002088401C20807068B8B1218890F9003097
:1072B00001F1030C4846BC45B9D8425421880A2242
:1072C000491C89B2218042542188491C89B22180FD
:1072D00009F801302088401C2080308950B1CDE968
:1072E00000474B460622022106F1080004F04EFD3D
:1072F000051E9DD1308A50B1CDE900474B4607228B
:10730000032106F1100004F041FD051E90D1308BE1
:1073100050B1CDE900474B461522142106F1180063
:1073200004F034FD051E83D1306A30B13B4622465D
:10733000494601F0D6F9051EDBD1706A30B13B46F3
:107340002246494601F0C8FE051ED2D196F82C000F
:1073500038B13B4622464946304604F08DF8051EBA
:10736000C7D1307838B13B4622464946304601F015
:107370003DFF051EBDD128465AE718B5044600203A
:10738000ADF8000013466A46204600F006F80028D3
:1073900002D0BDF80000204418BD70B588B182B19C
:1073A0000024158803E0065D641C3444A4B2A542A1
:1073B00003D8061976789E4201D08C42F3D38C42D2
:1073C00001D3002070BDA11C1180005D401E80B261
:1073D00070BD80F8301070472DE9F0470D0004466D
:1073E00006D02CB195F87A000026012803D006E0DB
:1073F0000E20BDE8F08795F89800012829D0D5F82F
:10740000A000042825D0D5F89C00042821D04FF0F6
:107410000109A6702C2205F17801201DFEF7C2FF9C
:1074200084F83060D5F8A4006063D5F8A800A063A4
:107430004FF6FF70A4F8480204F50D70C4F844023A
:10744000C4F84A62A4F84E6284F85062207810B101
:1074500004E00720CDE7FF2084F8540004F1550133
:10746000C4F8341294F82400EE274FF01F080128C6
:1074700033D0A4F8388200BF04F50E722846FFF717
:10748000BBFE0028B5D104F24311C4F83C1294F8B5
:107490002400012824D0A4F8408200BF04F5107213
:1074A00005F13C00FFF7A8FE0028A2D184F8519016
:1074B000208BA4F8480084F83C90266484F850603F
:1074C000606960644D4604F13C02002104F15400FF
:1074D00072DF00288DD125708BE7A4F83872CBE7D6
:1074E000A4F84072DAE710B50288102A1BD0112ADE
:1074F00020D0262A1DD1007A0C46012801D002286E
:1075000017D1A0780521401CB0FBF1F201FB12015C
:10751000204600F03BF800280BD0A16B002908D0D2
:10752000BDE810400847C27B012A02D18088A1F83B
:10753000480210BD0C46002184F852128088B4F82D
:1075400048128842F5D120790028F2D10121DFE7E5
:10755000704710B5044690F8540074DF012084F899
:107560005202002084F8540284F85000062120467C
:1075700001F00DFA002808D1A178204600F006F8A5
:1075800010B1A16B01B18847002010BD2DE9F05F5B
:10759000044600780F4698B1A7700025C4F84A52F7
:1075A000A4F84E5284F85052A079012608B1012F58
:1075B00009D0E07980B1012F05D0022F03D00BE074
:1075C0000820BDE8F09F616B21B184F8516208206A
:1075D000884701E084F8515204F24B2100200A5CF4
:1075E0000AB1304603E0401C0628F8D300204FF0D3
:1075F00002084FF0030B012F06D0022F0CD0032FEF
:107600000FD0042F15D110E0A17929B194F82410DE
:1076100011B908B130460DE0E17911B108B1404629
:1076200008E0207A08B1584604E0607A08B10420E6
:1076300000E02846A070616B41B1032801D0042806
:1076400004D1607910B194F85202A0B184F8535279
:1076500004F13C0018210746FEF7BDFE04F12C00A2
:1076600084F83C60814603F08BFD58B194F82C00FF
:1076700084F8510008E084F8545284F853620720DB
:107680008847E5E784F8516094F8240050B14846F3
:1076900003F076FD20B194F8280084F8520001E050
:1076A00084F8526084F85050A27804F24A2104F51C
:1076B0000D794FF0060A052A62D2DFE802F07A035C
:1076C0000F22410084F83160C4F84452C4E9101517
:1076D00084F83C808020A4F8480053E084F831808E
:1076E00094F82420384612B10722027001E080F895
:1076F00000B0228A8281C4F844524160E168B960D6
:1077000040E06069B860208BB88194F824003D4661
:1077100010B184F83CA001E084F83C60204604F0FD
:10772000FFFA50B185F814800421204601F02FF9AA
:1077300030BB052184F8311020E084F831B01DE021
:10774000E069B860208CB88194F824003D4610B1FF
:1077500084F83CA001E084F83C60204604F0E0FAA4
:1077600048B185F814800421204601F010F938B999
:1077700084F831A002E0042084F83100C4F8449277
:10778000A07878B13A4604F15400D4F8441272DF7C
:1077900000287FF416AF94F8301094F8540073DF8B
:1077A0000028F6D1616B11B194F8310088470020B0
:1077B00007E784F83150F5E770B5040012D00146B0
:1077C0001C221448FEF7EEFD1248134D0560206898
:1077D00050B17ADF002806D120680168296040682E
:1077E000686005E00E2070BD0B487BDF0028FAD1F1
:1077F00008484FF6FF711438084A20F8041B054961
:10780000343901600021FFF7E5FA0028EBD00320AE
:1078100070BD0000D4310020E42A0020B9BC020071
:1078200010B5044600F006F808B1204610BD14203B
:1078300010BD0000142801D3002070470146014804
:1078400001F032BDF43100207CB5054608880C46B5
:107850000930904201D90C207CBD68466DDF0028BC
:10786000FAD121880820685420881B21401C80B24E
:10787000208029542088401C80B220802844DDF8D4
:1078800001100160BDF8051081802088801D80B244
:1078900020809DF80010490800D00121295420883B
:1078A000401C208000207CBDF8B52B4D018804468B
:1078B0006E8821293BD015DC2848294A1029A0EBE5
:1078C00002004FEAD0004FF0030202EB004013D059
:1078D000112925D0132929D100231A4685213046A4
:1078E0007FDF17E03B2932D052292AD056291DD1FB
:1078F0008088132176DF0DE01AA102F0E3FA072059
:1079000000F0AAFB08B1FFF731FAA1886980184896
:1079100001F030FE002809D0BDE8F840FFF726BA94
:1079200014A102F0CFFA4FF6FF706880F8BD002076
:107930000090A08869468FDF0028F7D0FFF716FA7D
:10794000F8BD00231A4619463046B1DFE2E78088C9
:10795000132176DFDEE70000A02A0020D4C9020050
:107960008CC90200436F6E6E65637465640000002D
:10797000D02E0020446973636F6E6E656374656416
:107980000000000010B51A4C0188606810290ED064
:1079900011292BD1401E606028D1FFF738F900284B
:1079A00024D02168002921D0BDE810400847D0B973
:1079B00000210122084600F02DFB08B107280FD155
:1079C00007220221012000F025FB08B1072807D17A
:1079D00004220221002000F01DFB20B1072802D064
:1079E000216801B188476068401C606010BD0000DC
:1079F000DC2A00202DE9F04701883B4E40F2F319C4
:107A00004FF6FF7510291BD011293ED0122954D0F2
:107A1000502946D1C188F289841D914241D16189A2
:107A200002293ED18688304601F054F8050038D04E
:107A300004F10C0000F0B4F9A8B3294630464EE03A
:107A4000C17B8788044601292BD1A846284601F02E
:107A500041F8050017D02F800020287223484346A4
:107A60004A460168C5F80A104068C5F80E0004F1DE
:107A7000100105F10A0001F0E3F86872F0890028AE
:107A80000FD129462AE0042013E0808801F022F873
:107A9000040006D06068FFF71FFA08B103F0BCFCD1
:107AA0002580BDE8F087FFE76868FFF715FA002832
:107AB000F7D0BDE8F04703F0AFBC878806463846EC
:107AC00001F008F80400ECD02B464A4606F1080104
:107AD00004F10A0001F0B4F8607221463846BDE8AE
:107AE000F04700F045BE0000D4310020E42A002019
:107AF0002DE9F04F0746858802883D48012197B05F
:107B00008346102A09D0112A49D01A2A6CD1387A12
:107B1000B1EB101F45D2012244E0354C083CA0686F
:107B2000C0430B9061680BA801F0DFFB0B990CA818
:107B300000F0B8FD2C220CA96846FEF733FC0026A5
:107B4000E946A04610E000BF09EB46005FF00004E4
:107B5000B0F804A008EB84005146001D01F099FB29
:107B6000641C1D2CF6D3761C0098B042ECD8142D62
:107B700005D317B00420BDE8F04FFFF7F7B829464A
:107B8000584601F09CFB294608F1040001F097FBE0
:107B9000F87B012828D016482946001D15E0294603
:107BA0001AE000220221B1EB101F01D2012600E0F1
:107BB00000260F49083901F11000041D294682B141
:107BC00001F07DFB36B12946204617B0BDE8F04FE5
:107BD00001F075BB2946204617B0BDE8F04F01F013
:107BE00058BB01F056FBF5E717B0BDE8F08F000079
:107BF000F8310020F0B585B016460F4604001D464A
:107C000014D004AA19466069FFF7D2FA00280BD1F4
:107C1000A5F57F40FF380BD0049848B1007848B1F3
:107C20003088F42808D9072005B0F0BD0E20FBE706
:107C30000520F9E70820F7E7002000900190029066
:107C40000390A088ADF8000001208DF80200CDE976
:107C5000026769462846AEDFE6E7000070B5334D9F
:107C600004008EB02DCD08AE86E82D005BD0E9B3C0
:107C70000868A061214608A862DF002851D1207859
:107C800001258DF83200ADF83050A21C0CA9284611
:107C9000A8DF002845D120216846FEF79CFB022082
:107CA000ADF8000020788DF802008DF80C509DF89A
:107CB0000D00F426ADF8046040F00C008DF8115072
:107CC000ADF806508DF80D008DF81250608804F163
:107CD0000C02694600F0A6FB002822D1202168464C
:107CE000FEF779FB0320ADF8000000E01BE02078F0
:107CF0008DF802008DF80C509DF80D008DF8115094
:107D0000ADF8046040F010008DF81250ADF8065048
:107D10008DF80D008DF813506088221D694600F023
:107D200081FB0EB070BD0E20FBE70000F8BE020024
:107D300070B588B00446002924D0002C22D0084613
:107D40002188102920D0502924D057291AD105463E
:107D5000A188406906AAFFF72BFA002812D1069ED7
:107D6000307800280ED018216846FEF734FB012039
:107D70008DF800000195A088ADF808000396A96968
:107D80006846884708B070BD08B02146BDE870401D
:107D900003F0D4B808B02146BDE8704003F0AEB996
:107DA000007800F0010070470149085C704700004E
:107DB000B0BE02000649095C4FF0A040D0F81005A3
:107DC000C84010F0010000D0012080F00100704791
:107DD000B0BE02002DE9FC410646C0074FF0000589
:107DE0000ED0104F00240122385D0095002311466B
:107DF000019501F0D5FD641C042CF4D300F046F885
:107E0000B0070DD5074E0024361D0022305D032338
:107E100000951146019501F0C3FD641C042CF4D3B8
:107E2000BDE8FC81ACBE020007490B5C4FF0A041ED
:107E3000D1F804250120984020EA0203C1F8083552
:107E40001040C1F80C057047ACBE02000249085C46
:107E5000012101F024BE0000ACBE02000249085C12
:107E6000002101F01CBE0000ACBE02000649095C06
:107E70004FF0A040D0F80405C84010F0010000D039
:107E8000012080F001007047ACBE020010B5002454
:107E90002046FFF7DBFF641C042CF9D310BD10B59E
:107EA00000242046FFF7DAFF641C042CF9D310BD30
:107EB00010B50246064B4FF0FF3000215C5C944247
:107EC00001D1084610BD491C0429F7D310BD00009C
:107ED000B0BE020070B50C4E0C004FF000053060D3
:107EE0000BD0012000F06AF808B1022004E0002065
:107EF00000F064F800B10B202070706810B9FEF734
:107F000086FE0546284670BDDC2A002010B50020FC
:107F100000F0DCF908B1062806D1012000F0D6F9FE
:107F200008B1062800D1002010BD00002DE9F0475F
:107F30000D468146FFF7BCFF0446042836D2DFF821
:107F400074801B481C4EA8F10C0725B3012D0ED0E0
:107F5000022D2BD104EB440030444578002D25D070
:107F6000B968002922D02846BDE8F047084704EB4D
:107F70004401755C0E44717849B10E4A4FF40041DA
:107F8000093A8068FEF764FF08B987F80390B17872
:107F900008F80410E2E78068FEF79EFF04EB440156
:107FA000314418F804008D78A842D7D0BDE8F08796
:107FB000B4BE0200D82A002074310020042801D267
:107FC000FFF7F8BE002070470146104810B5408802
:107FD000042907D007290ED00A2915D1BDE8104081
:107FE00003F0A6BA132176DF0CE000280CD0BDE820
:107FF0001040FEF7BBBEA0F57F41FF3904D1044815
:10800000FFF7A7FA0828F0D110BD0000A02A002031
:10801000DC2E002070B50023042810D20D4D00EB9B
:108020004004012A02D101290CD00022094E00EBA4
:108030004000304461B1012906D0022906D007234F
:10804000184670BD0E30C2B22A55F9E74270F7E704
:108050008270F5E774310020044A0146002012794D
:10806000D20702D0084600F04DB87047CC2A002055
:1080700070B506461E480024C0E90161B00720D54E
:108080000025012211462846FFF7C4FF6D1C044657
:10809000042D02D2002CF4D013E094B940F26662B1
:1080A00004211448FEF7E4FD04000AD1FEF7CEFDDA
:1080B000040006D10F48104A0021001FFEF78AFE77
:1080C0000446F00712D00120FFF784FE74B9094876
:1080D0000A4A00210C38FEF77DFE040006D105484F
:1080E000074A01210838FEF775FE0446204670BD98
:1080F000CC2A0020C0BE0200A9830200B58C020079
:10810000456C02002DE9F05F6E4C05460026607854
:10811000B34618B184F801B000F0B4FD6A4F4FF4D3
:108120007A694FF4C87A4FF00108182D69D2DFE858
:1081300005F00C1313384754696E727B727BC5844B
:1081400084848484B3B6B9BCC5C500F09BFD38688F
:10815000FEF7C2FE06465CE00020FFF787FE00281F
:108160004FF0000008D0FFF771FE022D02D14FF44E
:10817000E16008E0484606E0FFF770FE022D01D1FD
:10818000C82000E05046410CC0034FF4FA7280183A
:1081900041F10001257052000023FEF7BFF80146AF
:1081A0002AE00020FFF762FE00284FF0000004D014
:1081B000FFF74CFE4FF44870E5E7FFF74FFEDFE7AF
:1081C0000020FFF753FE00284FF0000002D0FFF719
:1081D0003DFECFE7FFF742FED4E70020FFF746FE63
:1081E00000284FF0000002D0FFF730FE01E0FFF75B
:1081F00035FE257041F69A1100223868FEF728FEF8
:10820000064646E00020FFF70FFE257008E000203C
:1082100051E025703DE084F801800120FFF704FE65
:10822000002240F6CD41E8E784F801800120FFF705
:10823000FBFD00224FF48041DFE77868FEF74CFE3B
:108240000646D5F1110000D02EB10220FFF7FEFD49
:1082500084F802B01DE0012816D980B2C821484335
:10826000C117C90341EA5041C0034FF4FA728018A4
:1082700041F1000152000023FEF750F801460022B0
:108280007868FEF7E5FD06460220FFF7E7FD84F873
:1082900002803046BDE8F09F00F0F4FCB9E700F042
:1082A000F1FCB4E700F0EEFC04E000F0EBFC002091
:1082B000FFF7D4FD0120FFF7D1FDAAE7FFF7EFFD9F
:1082C000A7E70000CC2A0020B4BE0200012103F081
:1082D000C4BD00002DE9F8430546861C00208DF83A
:1082E000000090460F464FF001096846FEF79AFEDF
:1082F0001B4C20683860D4E90001401AA16804F2E0
:108300001C47081A0EE00121384600F0E8FF00F093
:1083100063FD0146384600F0E2FFD4E90001401A4F
:10832000A168081A401C8642EDD8B8F1000F03D0AE
:10833000052065F3891002E0062065F39F50A268CE
:108340002168114004EB8101C8602068304420603E
:108350009DF80000FEF78AFE4846BDE8F88300005D
:108360002436002070B50D4604460A2902D10D219D
:10837000FFF7F8FFA0682268411CA1601554D4E9FA
:108380000101814204D32046BDE8704001F00FBADC
:1083900070BD0000034803C8814201D1012070472D
:1083A000002070472436002000780221FFF7BEBD70
:1083B00005494FF0FF32082841F8202002D3084435
:1083C00080F84820704700007C320020F0B54FF064
:1083D000FF3512B10023082601E008230C260C4CBF
:1083E00005E000BF54F823707F1C04D05B1CB3422F
:1083F000F8D32846F0BD26185DB286F8305044F810
:108400002310002AF5D1E11881F84800F1E70000B7
:108410007C3200200249084490F930007047000087
:108420007C3200202DE9F0438146887891B0904657
:108430000C4600B901208DF83E002088ADF83C00C4
:1084400000250095607C694603F05AF86E46A07CD2
:10845000711C03F055F8E07B00289DF8020002D063
:1084600040F0080001E020F008008DF80200217CB7
:1084700011B140F0100001E020F010008DF8020072
:10848000217B11B140F0010001E020F001008DF8E6
:108490000200217D09B1022100E0012161F34200C7
:1084A0008DF802001C2102A8FDF795FF607BC10634
:1084B00001D4800617D50E950EAFE07C791C03F031
:1084C0001FF89DF83800079720F00F00401C20F09F
:1084D000F00010308DF838009DF83A0020F00600CA
:1084E000801C8DF83A00607B8DF80800A07B8DF829
:1084F0000900142109A8FDF76EFF0FA8CDE90906B0
:10850000A088ADF83000A06820B1E088ADF82C005C
:10851000A0680D90A06998B301950088ADF810008F
:10852000A06901AD01A94088ADF81200A0694068BA
:1085300006950390A069007B02F0E2FFA069691C28
:10854000407B02F0DDFFA069807A00289DF80600DC
:1085500002D040F0080001E020F008008DF806008D
:10856000A169C97A11B140F0100001E020F01000BB
:108570008DF80600A169097A19B140F0010002E006
:108580000DE020F001008DF80600A169897B09B19A
:10859000022100E0012161F342008DF80600E0694C
:1085A00000B10590434609AA02A94846AADF11B0C6
:1085B000BDE8F08370B5084C050009D0103421687F
:1085C000002907D008682060496828468847F6E7F0
:1085D0000834F4E770BD000068320020054A01212C
:1085E00020B1012805D19170FFF7E4BF5170002040
:1085F000FAE77047683200202DE9F05F26484168AD
:10860000F1B3DFF898B00E688146DBF80040876868
:108610008078E11B21F07F45ED1CB0B9DFF8808048
:108620004FF48030C8F84403C8F804031120FDF764
:10863000EDFF1120FDF7F5FF4FF0010AC8F800A08B
:108640002F2002F07FF889F802A0B54200D235460B
:10865000124BE8193C3320F07F401860DBF8001023
:108660005A46091B21F07F41001B20F07F40C91CA6
:1086700081420FD9106818602F2002F063F800E0E3
:1086800004E0BDE8F05F1120FDF7D6BFBDE8F05F64
:1086900002F00EBEBDE8F09F282B0020041501401B
:1086A0000010014073B58CB00646002000900D9874
:1086B00080B100246D4621460DA800F0F5FD30B1D3
:1086C000009805EB400084800098401C0090641CDA
:1086D000142CF0D32C2269463046FDF763FE0EB011
:1086E00070BD2DE9F04117880646B81D14460D46A9
:1086F000984202D90C20BDE8F08131880722062972
:108700000AD34FF4486C4FF6FF73614501D9994283
:1087100002D17088062801D21046ECE7604501D9E5
:108720009842F9D1994203D0984201D08142F3D8BE
:108730000520E85520881221401C80B22080295451
:108740002088401C80B220804119308803F055FAFF
:108750002188084480B220804119708803F04DFAC6
:108760002188084420800020C5E7FEF7FFBA0000FA
:1087700038B54A7A0F4B62B100220A725969002952
:1087800006D001228DF80020ADF802006846884727
:1087900038BD0A7A62B19B684C6802461946204689
:1087A000FEF756FB0028F3D0BDE8384002F034BE97
:1087B0005B68F1E7D431002070B588B00646002030
:1087C00005900690ADF81410ADF8161001900290C7
:1087D00001AA05A9304690DF050021D001F058FF1D
:1087E0000346114811493246401AC108012000EBE6
:1087F000014004460E4901F070FBBDF8042012B997
:10880000BDF8060028B1BDF80630204609A101F0E8
:1088100064FBBDF808201AB12046164901F056FB4A
:1088200008B0284670BD00008CC902008CC9020047
:1088300010C20200546865207265717565737465B5
:10884000642054582F5258207061636B6574206CFB
:10885000656E67746820697320746F6F206C6F6E2B
:10886000672062792025752F2575206F63746574E4
:10887000732E00005CC202002DE9F0470025DFF8EE
:1088800090803DE06068002100EBC5060120327851
:108890009146FDF774FDD4E9062300EA020701EAD8
:1088A000030C57EA0C0729D082438B434846C4E99E
:1088B000062302F009F83278824691460120002111
:1088C000FDF75DFDD4E9042300EA020401EA030791
:1088D0004A4650460021FDF752FD44404F403C437C
:1088E0000CD17078012801D0012000E000207268CE
:1088F00080EA0A0012B1C1B2484690476D1CEDB241
:1089000098F8000044468542BCD3BDE8F0870000DB
:10891000082B002010B50021024800F0F1FC80F384
:10892000100010BD403A00200E4910B50A784C786E
:108930000023A24212D0521CD2B20A70022A00D1E5
:108940000B70084A0B780C3252F8232002608868BA
:10895000104420F07F408860012010BD036000209B
:1089600010BD0000282B0020826883881A4003680D
:108970009A5C0A708168491C81607047C26883886C
:108980001A4003689954C168491CC160704770B5AA
:108990000D460446B0F83812D0F834020122FEF732
:1089A000ECFC00B1057004F13C0204F50D7104F11A
:1089B000540072DF70BD10B50446C0B2FEF708FB6C
:1089C000204610BD0C484A8843889A4213D10A8831
:1089D000A2F52063773B0ED18988C91E8AB28280B6
:1089E000064807491346401AC008032101EB00401E
:1089F00004A101F072BA7047A02A0020D4C9020075
:108A00008CC9020044617461206C656E206973201A
:108A100073657420746F20307825582825642900E8
:108A200010B50949094800F0ECFC08B1FEF79EF9C1
:108A3000F721064800F0D9FC002803D0BDE810401B
:108A4000FEF794B910BD0000C5890200BC2E0020BD
:108A50002DE9F0418046024601200021FDF78FFC00
:108A60001A4F05460E467868FEF736FA00280CD1F4
:108A7000174CD4E9062110462A4001EA06031A439E
:108A800005D0A843B143C4E90601BDE8F0814046E2
:108A900001F01AFF30B1D4E9040128433143C4E99D
:108AA000040105E0D4E90410A943B043C4E904106B
:108AB000D4E9060128433143C4E90601A168786876
:108AC000BDE8F0410022FEF7C3B9000014BF020068
:108AD000082B00200146034802888A4200D000206B
:108AE00070470000C03100202DE9FC5F0E00834676
:108AF000DDE90C47C6F1000098469246814600D455
:108B00000846012503E000BF90FBFAF06D1C5045BC
:108B1000FADAA84500D9454624B1002E01DB7807D2
:108B200000D5641EB80702D5B8F1000F0AD0F807C7
:108B300008D13CB1A54205D220215846641EFFF75A
:108B400011FCF6E7002E02DA4E462D2102E07807EE
:108B500003D52B215846FFF705FC07F00300022838
:108B60000BD1B8F1000F08D13CB1A54205D230219C
:108B70005846641EFFF7F6FBF6E7CDE9004743468B
:108B800052463146584603F03DF8BDE8FC9F0000D0
:108B900070B50D46044600684FF4887101F098FDE9
:108BA0004FF49071206801F093FD4FF492712068AA
:108BB00001F08EFD4FF4A271206801F089FD20685C
:108BC0001149C0F804132068690740F30730090E03
:108BD000002806DA00F00F0000F1E02080F8141DF4
:108BE00003E000F1E02080F800142068012140F348
:108BF000073000F01F0291404009800000F1E020A2
:108C0000C0F8001170BD00001003020002460020F1
:108C10001268530713D502F00300012802D002287E
:108C20000CD105E0C2F383100B68801C184404E0EB
:108C30000223086803EB9252104408600120704739
:108C4000F0B58488A518944200D82246A41AC28898
:108C5000D6189A4200D81346D21A4B880788BB42CE
:108C60000CD34088834209D88888A04206D3A84202
:108C700004D8C888904201D3B04201D90020F0BD89
:108C80000120F0BD0A4810B5807860B1002401E0F1
:108C9000022C06D02046FFF7D9F8641C042CF7D329
:108CA00010BD0324F6E7BDE81040FFF7EFB8000061
:108CB000CC2A002003480179C90702D00078FFF7C9
:108CC00021BA7047CC2A0020F7210180172141806A
:108CD000002101714171FB2181711B21C17170471C
:108CE0002DE9F047394E002780463D46DFF8E090F9
:108CF000D6F804A057E003D00446D0F81C8035E035
:108D000099F8002002EB4201521CD2B289F80020EF
:108D100009EBC10199F80230091D9A4201D189F885
:108D2000005048680A780446012A12D0022A02D06C
:108D3000032A3BD108E002F0EBFC00B101272574C7
:108D400034E00574C06900E070680028F9D17060F3
:108D50002CE0207C50BB88686060C868A06008690F
:108D6000E0604869A061F07800B165606268B16850
:108D7000184B501A20F07F40984202D2A168084454
:108D800006E0881AA16820F07F40814202D9081AC3
:108D9000206000E0256065600120A5602074204609
:108DA000E56102F097FCB8F10000A4D199F8001039
:108DB00099F801008142A3D117B97168514502D0D9
:108DC0000120BDE8F0870020FBE70000282B0020F1
:108DD00048330020FFFF7F002DE9FF410026234894
:108DE00000F07AFA2148001F074600F075FA204C7F
:108DF00060680090A56800E000986946284004EB90
:108E000080000C30FFF702FF0028F5D101AA00997D
:108E100001EA050304EB8303491CDB6842F82030B8
:108E2000401C00910228F2D3019800F003000128B1
:108E30000BD0022810D10198032101EB905000992A
:108E4000BDF80A6001EB900005E00198BDF80A60EA
:108E5000C0F3831008440090384600F03AFA08B195
:108E60000098606004B03046BDE8F0813C3A0020D4
:108E700024360020ACB0182272496846FDF792FAF9
:108E80007148069071494FF48070CDE9070109904F
:108E900007236F4A06A96846FEF748F808B1FDF7B0
:108EA00065FF4FF40041002001F078F808B1FDF7AC
:108EB0005DFF00F0DFFEFDF7A1FF08B1FDF756FFF3
:108EC00064490320FFF7D4F808B1FDF74FFF694666
:108ED0000020FEF7FFFF08B1FDF748FF01F074F92D
:108EE00008B1FDF743FF01F01FFB08B1FDF73EFF9E
:108EF000002469460120009401F0B6F908B1FDF79D
:108F000035FF684601F048FA08B1FDF72FFF9DF8DC
:108F1000080051A120F00F00401C20F0F00010309C
:108F20008DF808000F2202A87CDF08B1FDF71EFFB4
:108F300000941020ADF800003C200194ADF8020030
:108F4000ADF804404FF4C870ADF8060068467ADF0B
:108F500008B1FDF70BFFFFF763FD4348019001A93E
:108F6000424800F012FB08B1FDF700FF40480090B6
:108F700069464048FEF772FE08B1FDF7F7FEAC21E6
:108F80006846FDF728FA02208DF800008DF80240AF
:108F900005208DF803000120ADF84C0035498DF80F
:108FA0007C004020891F2290149144F2506023904D
:108FB000314829902D4869460C30FEF70DFA08B16A
:108FC000FDF7D4FE294801210C30FEF702FA1C21DE
:108FD0006846FDF700FA4FF42030CDE900404FF429
:108FE0007020029025480590032525488DF80C50E7
:108FF0000690ADF80E408DF810406846FEF7DCFB99
:1090000008B1FDF7B3FE1FA0FDF7C6FD22482349B6
:10901000401AC00805EB004021A100F053FF13489F
:1090200003210C30FEF7B2FA08B1FDF79FFE27A02E
:10903000FDF7B2FD00F02CFE0028FBD101F0D8F8BE
:10904000F8E7000094BE0200BC2C0020BC2D0020DC
:1090500069B80200C97F02004750535F6E5246351F
:109060005F426561636F6E0035A20200D02E002062
:1090700065AE0200AC2A0020FDAE020021AF020066
:109080006B8702000D0A554152542073746172744B
:1090900065642E0D0A000000D4C902008CC90200CC
:1090A0004465627567206C6F6767696E6720666FDD
:1090B000722055415254206F7665722052545420CC
:1090C000737461727465642E000000000D0A4845D7
:1090D0004C4C4F0D0A00000070B5144682880E46B5
:1090E00005462088111D0144921C994201D8FE2A90
:1090F00001D90C2070BD521C32542088FF21401C25
:1091000080B2208031542088401C80B22080811998
:10911000288802F072FD2188084480B22080AA8845
:1091200042B1A96841B13044FDF73CF92088A988D3
:1091300008442080002070BD072070BD2DE9F04755
:10914000C5881E1DB6FBF5F78946B6FBF5F104464A
:1091500005FB176C407916686843DDF820A0F71806
:10916000001F874200D9C61A166001E02468491E14
:109170000029FBD1A5EB0C078846B74216D818E0AA
:1091800004EB0C00001D09EB0803BAF1000F3A468E
:1091900002D00146184600E01946FDF703F924689D
:1091A000F61B4FF0000CB844B54201D9374600E039
:1091B0002F46002EE4D1BDE8F087000030B502460E
:1091C00051B100F009FF0021074C08E034F82130CC
:1091D0001568AB4202D11160002030BD491C8142AC
:1091E000F4D3052030BD000000000000F8B50F46A4
:1091F000017814460546012901D1687830B12088EC
:10920000821C9A4232D8012902D006E00720F8BD1C
:1092100069780144891C994228D8181A801E86B2A0
:10922000ADF800602188B81C084469467DDF00283D
:10923000EDD12978022904D06878BDF80020904249
:1092400005D3BDF80000B04201D809200AE008208B
:10925000012905D16978B14202D8ADF8001001E0CA
:10926000ADF80060BDF80010FE2901D90C20F8BD52
:109270002288491CB9542188491C89B2218078541C
:109280002088401C2080BDF8001008442080002069
:10929000F8BD01F01F0301229A40D243490900EBB7
:1092A0008100114600F021B84A0950F8220001F06F
:1092B0001F0201219140084000D00120704701F0B9
:1092C0001F0301229A40490900EB8100114600F07A
:1092D0001CB8002100F00FB8012100F016B808B545
:1092E0006A46FCF7CAFF009808BD08B56A46FCF755
:1092F000AAFF009808BD08B56A46FCF7A4FF08BDA0
:1093000008B56A46FCF786FF08BD08B56A46FCF753
:109310008DFF009808BD08B56A46FCF7BBFF0098B2
:1093200008BD38B5044600258DF800506846FDF7A5
:1093300079FE21686268086890420ED9401E086074
:109340000178238AE26801FB0325227A2168101A3A
:10935000C0B20A79824200D208719DF80000FDF780
:1093600085FE284638BD38B5054600208DF800003A
:109370000C466846FDF756FEE868298A201AB0FBBD
:10938000F1F12A681068431C136001709DF8000019
:10939000FDF76CFE38BD10B530B1017A4268036844
:1093A000891AC9B21A6006E00E2010BD03681A6857
:1093B000541C1C601170491EC9B2F7D2006800210C
:1093C0000171084610BDC20800F007030120895C46
:1093D00098400840704710B5C20800F00703885C49
:1093E00001249C402043885410BD28B1A1F11702EC
:1093F000E12A03D3072070470E2070470180002028
:10940000704710B560B10161F72120F8021B20F808
:10941000021BFB2100F8021BFFF756FC002010BDC9
:109420000E2010BDF0B5858893B00C46002D39D1C3
:10943000018800263F4F24293BD006DC102909D0A3
:1094400011290CD0232958D14FE03A290BD05529A6
:1094500053D129E00146204601F0A6FD4DE0A01DB4
:10946000FFF732FC49E02246408934F8061F81426A
:1094700000D808466080172800D217206080106945
:1094800070B1607960B1D7E90001CDE90301ADF8B1
:109490000E506088ADF81000136903A91046984774
:1094A0006671267113B0F0BD0146204601F0D0FD73
:1094B00023E0011D2C2206A8FCF774FFBDF818005C
:1094C000BDF81C2004EBC0014A732269AAB1D7E998
:1094D0000423CDE90423ADF81200487B8DF8140075
:1094E0002269204604A9904707E0017A207B884240
:1094F00000D201462846FFF75FF9A07A0028D1D0B4
:10950000E1882846A5DF012580B11128CAD001F0E5
:10951000BFF802460848094913B0401AC00805EBD5
:109520000040BDE8F04006A100F0D0BCA672E57294
:10953000B8E70000E0BE02008CC902008CC902003E
:1095400073645F626C655F67617474635F657863A1
:1095500068616E67655F6D74755F7265717565735F
:109560007428292072657475726E65642025732EC7
:109570000000000020B10278DE2A03D008207047E6
:109580000E20704741800020704760B159B10278C9
:10959000DE2A0AD009684160DE2101704FF6FF71B2
:1095A0004180002070470E207047082070477FB52B
:1095B000054600294DD0002D4BD008780C46DE28FA
:1095C00047D1A8886188884202D1204602F0B4FBC6
:1095D0002888012825D002283BD011283AD05128CC
:1095E00037D135F8040F6188884232D1A978A81C98
:1095F00002292ED1017A042903D0062901D0052998
:1096000027D10021009102228DF8002001914FF412
:10961000C07202910391ADF80420007A05280FD0A2
:1096200010E0297A2046012913D1A9884288914265
:109630000FD10121017204B0BDE8704002F07CBB83
:10964000ADF8041028886946B0DF002801D06168B1
:1096500088477FBDA88861888842FAD14FF6FF709D
:1096600060807FBD00F180400068002800D00120AC
:10967000704708B500F1804000210160006800904B
:1096800008BD000070B50B4C207808B185250FE0AF
:109690000020A06060602061E060074801F034F8BD
:1096A000054600F08DFF08B901F018F80120207080
:1096B000284670BD68320020DD85020038B50025DF
:1096C0008DF800506846FDF7ADFC074CE068401E81
:1096D000E060E06810B901F027F8A5709DF800007F
:1096E000FDF7C4FC38BD000068320020F0B5054627
:1096F0000478154889B0164640F82420124A0869B3
:10970000121DA2F1080742F82400487F3855202294
:109710006846FCF747FE04942878385C48B10EB1DF
:109720000A4A00E000226946281D01F08DFA09B0BE
:10973000F0BD0EB1064A00E00022694605F10C00BA
:1097400001F03AF9F3E70000F02A0020D9BA02004C
:1097500081B9020030B40378054CE35C1BB130BC26
:10976000001D01F0A7BA30BC0C3001F08DB900002B
:10977000EC2A002030B40378054CE35C1BB130BC0C
:10978000001D01F019BB30BC0C3001F0F3B9000032
:10979000EC2A00200FB408B50399002904D004AACC
:1097A00000926A4600F00FF801B05DF814FB10B5A6
:1097B00082680446002A05D0D4E90403216898474A
:1097C0000020A06010BD2DE9FC4791460C008046AA
:1097D00076D014F8011B39B125290ED04046FEF78A
:1097E000C1FD20780028F4D198F80C00002867D03B
:1097F0004046BDE8FC47FFF7DABF00200122217890
:109800002B291BD02D2902D0302908D102E040F0AD
:10981000010001E040F00200641C002AEFD10025A5
:109820002A290ED02178A1F130020A2A11D205EBA3
:10983000850201EB4205641C303DF1E740F0040075
:10984000EAE7D9F800100B1DC9F800300968641C5C
:109850000D44217800232E290BD114F8011FA1F10A
:1098600030020A2A05D203EB830201EB4203303BAC
:10987000F3E76C290DD068290BD0692921D00BDCC6
:10988000252918D0582931D063290ED0642915D143
:1098900017E014F8011FECE7702969D0732932D062
:1098A00075291BD0782909D120E0D9F80000011DC5
:1098B000C9F8001001784046FEF754FD641C90E79B
:1098C0006CE0D9F800100A1DC9F800200968CDE93C
:1098D00000500A224046FFF707F9EFE7D9F80010D9
:1098E0000A1DC9F8002009680A2206E0D9F800100C
:1098F0000A1DC9F8002009681022CDE90050404631
:1099000002F080F9DAE7D9F8001000270A1DC9F83B
:1099100000200E68C00705D112E04046761C7F1C6F
:10992000FEF720FD31780029F7D104E020214046E0
:109930006D1EFEF717FDBD42C0D9002DF6D1BDE763
:109940004EB13046FCF752FD074604E02021404668
:109950006D1EFEF707FDBD4206D9002DF6D103E0CE
:109960004046761CFEF7FEFC31780029F8D1A5E7C9
:10997000D9F80000011DC9F80010056830214046E3
:10998000FEF7F0FC78214046FEF7ECFC08200021B1
:10999000CDE90001034610222946B0E7BDE8FC8767
:1099A00070B541EA4201DDE904564FF0A04441EAB6
:1099B000830141EA052104EB800041EA0641C0F839
:1099C000001770BD70B541EA4201DDE904564FF061
:1099D000A04441EA830141EA052104EB800041EA09
:1099E0000641C0F8001770BD70B541EA4201DDE9DB
:1099F00004564FF0A04441EA830141EA052104EBFB
:109A0000800041EA0641C0F8001770BD70B541EA18
:109A10004201DDE904564FF0A04441EA830141EAE6
:109A2000052104EB800041EA0641C0F8001770BD33
:109A30001CB500220B46009211460192FFF7D4FF9D
:109A40001CBD1CB500220B46009211460192FFF787
:109A5000DDFF1CBD1CB5002100910B4601220191C8
:109A60001146FFF7C1FF1CBD1CB5002100910B463C
:109A7000012201911146FFF7C9FF1CBD4FF0A04222
:109A800002EB8000D0F8002722F44032C0F8002713
:109A9000D0F8002742EA0141C0F8001770470122C0
:109AA0004FF0A043824011B1C3F808257047C3F8B6
:109AB0000C25704718B5084B6C4601441B68009391
:109AC00006E000BF54F82030D3F81035401C08C21F
:109AD0008142F7D818BD000008BF0200034908B54D
:109AE0000844002101600068009008BD006000404B
:109AF00002494058012800D0002070470060004013
:109B000030B5154A01460020D2F8104423460AE039
:109B1000DB681D79854205D1401C0A28F6DB4FF031
:109B2000FF3030BD1B68002BF2D1431CF9D0CB684D
:109B30001871D2F8103443B1DB68CC681B6823601D
:109B4000D2F81024D268116030BDC2F81014C96870
:109B500000220A6030BD0000243600207047FCF768
:109B6000C5BD704708B5034A00924023024A00F081
:109B700005F808BD29B402008C340020F0B595B07A
:109B80001C4615460F4608461A9E00F0F7FA1821A3
:109B900009A8FCF720FC0E96CDE909540023082201
:109BA00003A9384600F0FFFA05980690BDF81000AA
:109BB000ADF81C00BDF81200ADF81E0000208DF8B5
:109BC00021000398082600F00300012802D0022893
:109BD00018D032E003983346850AC0F3C2008DF8EE
:109BE000200003980FA9C0F38314A200384600F0A8
:109BF000DAFA09A8009006AB22460FA9284600F021
:109C000019FA1AE00398840DC0F3C2008DF8200001
:109C1000082C01D2254600E0082533462A460FA924
:109C2000384600F0C0FA2E44641B09AB06AA294648
:109C30000FA800F05BF9002CEAD1384600F0A4FA36
:109C400015B0F0BD0A4A012902EBC00007D0022975
:109C500007D0032907D0042907D00020704702202D
:109C600070470420704700797047407970470000C2
:109C70008CC9020010B5FFF772FF04210348FFF7FB
:109C80003FFF02490120C968487110BD7CC902002C
:109C90002DE9F04F8DB0FEF77DFB18B100200DB01F
:109CA000BDE8F08F7E4C4FF0000BC4F818B4BFF342
:109CB0004F8F60680290A568D846284004EB80006A
:109CC0000CE000BFD4F8180470B9216802988142F2
:109CD00001D86160E2E7284004EB80000C3002A963
:109CE000FEF794FF0028EDD1002005AA029901EAB1
:109CF000050304EB8303491CDB6842F82030401C59
:109D000002910228F2D3059800F00300022802D045
:109D100001284DD0AAE005985022810D8946B2EB6A
:109D2000905F00D850210E4666F39F500590083191
:109D30005C4800F0DAF9070078D000F01FFA4346DB
:109D4000082205A9384600F036FA029908F1080AF7
:109D50002940681A8000001D864222D9504D0C35DA
:109D600030B1C2B204EB8101301A90460C3104E0EC
:109D70002946F2B2002590462846C6B253463846D8
:109D800000F019FA0AEB080325B132462946384695
:109D900000F011FA029909F1030001EB9000029022
:109DA0003BE004EB81015346324638460C31EFE785
:109DB0000598C0F38310062800D30620059960F3A8
:109DC0008911C1F38310801C05918100354800F092
:109DD0008CF907004AD000F0D1F94346082205A9C2
:109DE000384600F0E8F908F1080800260FE002986C
:109DF000434600EA0501401C04EB81010290042265
:109E000038460C3100F0D7F908F10408761C0598A3
:109E1000C0F38310B042EAD847B1D4F81054D4F854
:109E2000180478B1384600F0AFF934E01EE0E86875
:109E30004079012804D12A6828463946126890479B
:109E4000E8680568002DF2D1384600F09DF98DF8DC
:109E500000B06846FDF7E6F8D4F8180408B902988F
:109E600060609DF80000FDF701F914E0D4F810449B
:109E700005E02168204689688847E0680468002C6E
:109E8000F7D109480949401AC008022101EB0040F6
:109E900007A100F017F8FEF77DFA80F00100FEE65A
:109EA00024360020F4C90200D4C902008CC9020083
:109EB0004261636B656E647320666C75736865647C
:109EC0000000000000231A4601F07EBB08B5012304
:109ED00000926A4601F078FB08BD1CB5CDE900236D
:109EE00002236A4601F070FB1CBD00002DE9F0471B
:109EF0000E4680461C469246082940D894F80C909D
:109F0000002020731946104601F07AF90025B54269
:109F100006D218F805201BA12046FFF73BFC03E002
:109F20001AA12046FFF736FC6D1C082DEFD318A1AF
:109F30002046FFF72FFC0025B54212D218F8057015
:109F40007E2F08D8FCF72AFA0068C05D10F03E0F9B
:109F500001D03A4600E02E220EA12046FFF71AFC5F
:109F600003E00DA12046FFF715FC6D1C082DE3D37F
:109F700001222146504601F025F984F80C90BDE8F5
:109F8000F0870000202530327800000020202000DB
:109F90007C00000025630000200000000B4810B585
:109FA000FF218160002101604160C0F81814C0F8F1
:109FB000141480F82014064800F0E4F8002803D1B7
:109FC000044800F039F9002010BD000024360020BC
:109FD000F4C90200D8C0020002480349401AC00870
:109FE00070470000F4C902008CC9020013B568462E
:109FF000FFF7E4F808B100201CBD0248009950F8B2
:10A0000031001CBD8CC9020070B509480125D0F88B
:10A01000104480F8205407E0E0684571216820462C
:10A0200049688847E0680468002CF5D170BD0000DD
:10A03000243600202DE9FF4781460C9D00200C4668
:10A040002F7B2873984616462946184601F0D8F803
:10A05000072E42D2DFE806F004090F161F2A360049
:10A0600049462846FFF796FB37E0494628462268CE
:10A07000FFF790FB31E0D4E9002349462846FFF77B
:10A0800089FB2AE0A0680090D4E9002349462846CD
:10A09000FFF780FB21E0D4E90201CDE90001D4E91A
:10A0A000002349462846FFF775FB16E004F1080037
:10A0B00007C88DE80700D4E9002349462846FFF782
:10A0C00069FB0AE004F108000FC88DE80F00D4E92D
:10A0D000002349462846FFF75DFB002229464046FB
:10A0E00001F070F82F73BDE8FF872DE9F041058A74
:10A0F00080462D1F4819C01CB0FBF5F0C6B2404683
:10A10000FFF70FF9041E19D00020207101206071A3
:10A11000E58000272546761EC4F800800BE0404607
:10A12000FFF7FFF860B16179491C6171286005464D
:10A130007F1CC0F80080B742F1D32046BDE8F08113
:10A14000204600F002F80020F8E72DE9F0414579BB
:10A1500001466B1E002201E00968521C9A42FBD3A3
:10A160000F680146002605E038460C68FFF7FBF84B
:10A170002146761CAE42F7D3BDE8F0810121001DD7
:10A18000FFF7ADB8FFF707B910B504460121001D70
:10A19000FFF7C1F810F0FF0F04D12046BDE81040D2
:10A1A000FFF7D3BF10BD1CB501920122009201AA96
:10A1B000FEF7C4FF1CBD1CB501920022009201AA4B
:10A1C000FEF7BCFF1CBD0000064910B5002048701A
:10A1D000091D0860BFF35F8F0349044800F014FABB
:10A1E000002010BD582B002070BF020080340020DA
:10A1F00008B500208DF800006846FCF713FFF1EE6B
:10A20000100A20F09F00E1EE100ABFF35F8F0849AB
:10A210004020C1F880029DF80000FCF727FF00F005
:10A22000CFF908B141DF08BD20BF40BF20BF08BD46
:10A2300004E000E0FCF79ABD82680021916082682A
:10A240001161826851618268D16082685160806862
:10A250000160704720B10349096801600020704720
:10A260000E2070475CC102002DE9FE4307460E46F2
:10A270000846FFF7EFFF00287CD1002400940194EA
:10A2800006208DF800704FF00108ADF8040002942C
:10A290008DF8028069462020326869DF3649374AE6
:10A2A000891AC908012202EB014530B100F0F0F92A
:10A2B000024628463249FFF709FE00948DF80180D6
:10A2C0008DF80240019402948DF8034069464020C5
:10A2D000326869DF30B100F0DBF9024628462949CF
:10A2E000FFF7F4FD00948DF80070F720ADF8020040
:10A2F0000194029469462320326869DF30B100F08E
:10A30000C7F9024628462049FFF7E0FD0094019472
:10A3100002948DF8008069460120326869DF30B10F
:10A3200000F0B6F9024628461849FFF7CFFD4FF472
:10A33000B0600090019402946946A120326869DF00
:10A3400030B100F0A5F9024628461149FFF7BEFDDD
:10A350000094019402948DF800406946A020326870
:10A3600069DF30B100F094F9024628460949FFF749
:10A37000ADFD0020BDE8FE83E4C902008CC90200E7
:10A38000FCC7020044C8020090C802005CC702007B
:10A39000A8C7020008C702002DE9F041054607687A
:10A3A00060DF804619491A482A68081AC608BA4266
:10A3B00019D9022000EB064416A12046FFF782FDC2
:10A3C00020463A461FA12B68FFF787FD4FF08050CB
:10A3D000D0F80C012968800200F10050421A204692
:10A3E00025A1FFF773FDB8F100004FF001040AD07A
:10A3F00000F04EF9024604EB06402AA1FFF766FD85
:10A400004046BDE8F0812F480470F9E7E4C9020036
:10A410008CC90200496E73756666696369656E74FE
:10A420002052414D20616C6C6F63617465642066DD
:10A430006F722074686520536F6674446576696333
:10A44000652E00004368616E676520746865205260
:10A45000414D207374617274206C6F636174696F15
:10A460006E2066726F6D203078257820746F2030F2
:10A470007825782E000000004D6178696D756D209B
:10A4800052414D2073697A6520666F722061707049
:10A490006C69636174696F6E206973203078257808
:10A4A0002E00000073645F626C655F656E61626CB4
:10A4B0006528292072657475726E65642025732E77
:10A4C00000000000C32B002030B51548ADF5017D1C
:10A4D0000078002821D04FF4FA7500BFADF8005283
:10A4E00080A9684661DF38B1052816D00DF5017DD9
:10A4F000BDE83040FCF73ABC6C460A497DA800F044
:10A5000083F806E0D0E90021204690477DA800F0BE
:10A5100092F87F980028E1D0F4E70DF5017D30BD79
:10A52000C32B002060C102007CB5194C207808B113
:10A5300008207CBD0120A070002000F03FFF112802
:10A5400019D0002000F052FF124800260068019048
:10A550008DF800606846FCF765FD0F4901A810DF23
:10A5600005000AD0002020709DF80000FCF77EFD59
:10A570002DB128467CBD00207CBD0120F3E7A670EC
:10A58000667000F0F5FF012000F030FFF3E70000F7
:10A59000C02B0020F4C00200E96C02000EB5074990
:10A5A000684600F031F805E0D0E9001088476846B9
:10A5B00000F041F802980028F6D10EBD10C102004B
:10A5C0000148007870470000C02B00201FB5684686
:10A5D0004BDF30B1052814D004B0BDE81040FCF7C3
:10A5E000C5BB084901A800F00FF806E0D0E900213A
:10A5F0000098904701A800F01EF803980028E6D0C4
:10A60000F4E71FBD7CC10200016009684160AFF33F
:10A61000008010B5D0E900215368994201D1002192
:10A6200004E0D1E90034A34202D01946816010BD94
:10A6300008314160F0E7816800290BD00268926818
:10A640000A44826041684B689A4203D108314160F4
:10A65000FFF7DFBF704700000C4A10B502F5947396
:10A660000EE0991AC91001EBD171491002EBC1013A
:10A670000C68844201D90B4602E005D201F10802C0
:10A680009A42EED3002010BD486810BD90BF020072
:10A6900000B5FFF7E1FF002800D1014800BD000030
:10A6A0007CBF02004058002800D00120704708B548
:10A6B000002242504058009008BDD0F804030840E2
:10A6C00000D0012070474058002800D0012070477A
:10A6D00008B5002242504058009008BD0848006864
:10A6E000012110F0010F06D14FF0E020C02280F8C8
:10A6F0000024C0F8001103490120086070470000E1
:10A7000000E100E0180500400649024600200B79F0
:10A710000BB1852070470A6001220A7100224A713C
:10A7200070470000F82A002004490120086004480E
:10A730000168C1F300410029FAD170470C000040C4
:10A7400018040040002802D00149800108477047E2
:10A7500021BF02002DE9F0418846054600F01AFDB0
:10A76000234E002828461AD0FDF754FE304490F8B6
:10A7700048008009032802D001280ED007E04FF0DE
:10A78000A040D0F81005E84010F0010F05D00321DB
:10A790002846BDE8F041FFF771B90221F8E700F063
:10A7A00005FD002822D02846FDF734FE04464FF46C
:10A7B000807000EB84000F4F81B207EB8400D0F86B
:10A7C000102542F00102C0F810250846FFF786F96F
:10A7D000B8F1000F0AD02846FDF71CFE56F82000FD
:10A7E000002803D00120A040C7F80403BDE8F08191
:10A7F0007C320020006000402DE9FC41DFF8BC8085
:10A80000044608EB0400002790F930001346C017F7
:10A810000E46401C01D008274CE0B0781946C0F322
:10A8200040022046FDF7D2FD0546401C41D0B078DD
:10A83000410719D4C0070AD04FF0A04000EB8401B3
:10A84000D1F8000720F00200C1F8000707E000215E
:10A850007378204600910A460191FFF7B3F8174933
:10A8600020465431FEF7B7FDB078800718D514485C
:10A87000317800EB8500D0F81025124B1A40C0F853
:10A8800010254FF4F8524FF4403302EA042203EA51
:10A8900001410A43D0F810150A43C0F8102509E019
:10A8A00008EB0500327810F8481F41EA8211017068
:10A8B00000E004273846BDE8FC8100007C3200201F
:10A8C00000600040FFE0FCFF4FF0A041D1F8101500
:10A8D000C14011F0010000D00120704770B5174D44
:10A8E00095F8580008B1082070BD0020411E2A18B4
:10A8F000401CC0B282F830102028F8D30024204633
:10A90000FDF756FD641CE4B20C2CF8D300240C496E
:10A91000C0206C6581F8000401264020891FC1F821
:10A9200000014FF4BE70FFF7D9F80649F007C1F8EF
:10A93000040385F85860204670BD00007C3200207A
:10A9400006E000E000600040034890F8580000284E
:10A9500000D00120704700007C3200200121B1EBC3
:10A96000507F01D1012070470020704738B50D4657
:10A9700000F092FC040014D000208DF8000068461E
:10A98000FCF750FB207928B19DF80000FCF76EFB26
:10A99000112038BD0120256020719DF80000FCF7D2
:10A9A00065FB002038BD00000149024801F000B8F5
:10A9B000D8320020002000402DE9F0410546007902
:10A9C00016460F4600EB40012C4A01EBC00102EB9A
:10A9D000810494F82A1011B10820BDE8F0812849BB
:10A9E00051F820102868FFF7C1FF08B11120F4E7E3
:10A9F00039462846FCF754FB666038692060300011
:10AA00004FF001062DD03F7F4FF48E712868FFF77D
:10AA10004EFE4FF4A2712868FFF749FE28681949D5
:10AA2000C0F8041328684FEA471140F307300028A4
:10AA300006DA00F00F0000F1E02080F8141D03E0BA
:10AA400000F1E02080F80014286840F3073000F09F
:10AA50001F0106FA01F14009800000F1E020C0F872
:10AA6000001128680421C0F800150020A061E061F1
:10AA700084F8290044F8140FA675AEE7D8320020F8
:10AA80000CBF0200800002002DE9F05F054600794E
:10AA90004FF4017600EB400303EBC000344B03EBB3
:10AAA00080040020636813B12B68C3F80863A369AE
:10AAB0004FF000096BB1E06938B1606810B12868E7
:10AAC000C0F804631120BDE8F09FE261012021611C
:10AAD00005E0C4F82490A261E160C4F81C9094F8E9
:10AAE0002910014302D1284600F02FFC606800289D
:10AAF000286803D0C0F804630020E4E74FF4A2768E
:10AB00003146FFF7D4FDB2464FF4927B5946286890
:10AB1000FFF7C8FD06464FF484712868FFF7C2FDB1
:10AB2000804651462868FFF7BDFD074648EA070002
:10AB30003043EBD056EA070007D12146286800F0E1
:10AB4000D5FBA169606A8142E0D8C4F818900EB1C3
:10AB50000320B8E70FB10F20B5E794F829100120C2
:10AB60000029296801D00860C6E74860C4E70000F2
:10AB7000D83200202DE9F047054600790B4600EB5E
:10AB8000400101EBC000234901EB8004284600F09E
:10AB900043F810B11120BDE8F0874FF00008C4F869
:10ABA0002080A360626184F828804FF48E76474647
:10ABB00031462868FFF77BFD28684FF00109C0F88F
:10ABC00008902146286800F031FE606800BBD5F887
:10ABD00000A00EE094F8280008B10F2716E03146D7
:10ABE0005046FFF75FFD0028F4D02146504600F0A4
:10ABF0001DFE216A60698142F1D331462868FFF762
:10AC000051FD0028F9D02868C0F80C90C4F81480D1
:10AC10003846C0E7D8320020007900EB400101EB54
:10AC2000C000044901EB80004069002800D00120E9
:10AC300070470000D83200200149024800F064BF8C
:10AC400004330020002000402DE9F041054616465F
:10AC500000790F46154A00EBC00102EB810494F81D
:10AC6000201011B10820BDE8F081114951F82010E1
:10AC70002868FFF77BFE08B11120F4E73946284623
:10AC8000FCF752FA6660386920601EB1397F2846A9
:10AC9000FDF77EFF28680821C0F800150020A0619C
:10ACA000E0616061012184F82010DCE704330020BA
:10ACB00010BF02002DE9F05F044600790E4600EB5C
:10ACC000C001DFF8F0A017460AEB81053046FFF718
:10ACD00045FEB0B168684FF000084FF4047910B138
:10ACE0002168C1F80893A8694FF0000B80B1E869AA
:10ACF00048B1686810B12068C0F804931120BDE81D
:10AD0000F09F1020FBE7EF614FF001082E6102E099
:10AD1000EE60C5E9067B00254FF488712068FFF7D7
:10AD2000D7FC4FF4A2712068FFF7D2FC2068C0F86E
:10AD30003465C0F838752068B8F1000F12D0D0F82B
:10AD4000001241F02001C0F800122079D04600EB3B
:10AD5000C0010AEB8100406838B12068C0F8049354
:10AD60002846CCE701210160EFE74FF4887A4FF4E1
:10AD7000A27951462068FFF7A6FC0746494620689D
:10AD8000FFF7A1FC06464FF492712068FFF79BFC89
:10AD9000014647EA06000843EBD0227902EBC203E2
:10ADA00008EB8302C2F818B001B10325002ED7D0FA
:10ADB0000F25D5E7043300202DE9F04704460E4661
:10ADC0000079204900EBC00001EB800517463046B2
:10ADD000FFF7C4FD30B1204600F036F820B1112055
:10ADE000BDE8F0871020FBE76F61AE604FF490760E
:10ADF000002731462068FFF76BFC4FF4AC784146E2
:10AE00002068FFF765FC2068AA686969C0F84425D6
:10AE1000C0F84815206801218160686878B9B1469A
:10AE200049462068FFF74FFC064641462068FFF779
:10AE30004AFC0643F4D000B10F2700206861384671
:10AE4000CEE70000043300200079054900EBC00084
:10AE500001EB80004069002800D00120704700000D
:10AE6000043300202DE9F04105460078002828D160
:10AE7000154816490026401AC008012101EB004779
:10AE800010E02869805DFCF7A3F8040009D0112CBC
:10AE9000F7D0384622460EA1FFF718F82046FBF7F8
:10AEA00065FF761CA88AB042EBD8A98A28690844B5
:10AEB00010F8010C0D2804D10A20FCF789F811289C
:10AEC000FAD0BDE8F0810000D4C902008CC90200AC
:10AED0004661696C656420726563656976696E6751
:10AEE000204E5553206D6573736167652E20457242
:10AEF000726F7220307825782E20000010B550B186
:10AF000003280CD10220FDF7A7F8002807D0BDE8E0
:10AF10001040FBF72BBFBDE8104000F009BB10BD8F
:10AF20000078002807D104483B21408876DF0028BC
:10AF300001D0FBF71BBF7047A02A0020F0B58BB0F3
:10AF4000002601960D4604468988406901AAFCF74F
:10AF50002FF90AA8CDE908600227ADF82070ADF8F6
:10AF60002260218AA88808AAADDF002819D1A0692B
:10AF7000002816D00998FCF713FF002811D0019E75
:10AF80000EB101203070182102A8FBF724FA8DF8C9
:10AF900008700394A888ADF810000596A16902A86E
:10AFA00088470BB0F0BD000070B58D88027900EBCA
:10AFB000C5042273C97BA41D012902D0022904D132
:10AFC00001E0008800E0408820802188608881427C
:10AFD00011D92846A5DF0126B0B1112816D0FFF7F8
:10AFE00057FB02460B480C49401AC00806EB0040CC
:10AFF0000AA1FEF76BFFA179E079814208D92846C2
:10B00000BDE87040FDF7D8BB6671F4E72671F2E742
:10B0100070BD00008CC902008CC9020073645F62BD
:10B020006C655F67617474635F65786368616E67A0
:10B03000655F6D74755F726571756573742829201D
:10B0400072657475726E65642025732E00000000B1
:10B050007CB506468D88C88806EBC504A41D172854
:10B0600000D217202188814200D808466080002045
:10B07000207121882846B5DF60B1FFF709FB024641
:10B080000F481049401AC008012101EB00400EA1F1
:10B09000FEF71CFF6079002810D1306900280DD020
:10B0A0001549D1E90201CDE90001ADF802506088EF
:10B0B000ADF8040032696946304690477CBD000017
:10B0C0008CC902008CC9020073645F626C655F67A3
:10B0D000617474735F65786368616E67655F6D74D2
:10B0E000755F7265706C7928292072657475726E4F
:10B0F00065642025732E0000E0BE0200F0B587B025
:10B100000C4605468E1D8988406906AAFCF750F852
:10B1100018216846FBF75FF90195A088069AADF8FB
:10B120000800039231882B89002704F1120099420C
:10B1300002D17389022B0DD0AA8991421ED1A9692F
:10B1400000291BD08DF8007004907089ADF81400B0
:10B15000A96911E0002A11D0FCF722FE20B106995E
:10B1600001200870022002E00698077003208DF885
:10B170000000A969002901D06846884707B0F0BDE2
:10B180000068012803D0022801D000207047012068
:10B19000704700000449084490F93000082801DB9A
:10B1A00001207047002070477C3200200449084489
:10B1B00090F93000082801D2012070470020704724
:10B1C0007C32002010B50C46017A052908D0407A5F
:10B1D00038B1084808A102682046FEF7DBFA00E013
:10B1E0001AB106A12046FEF7D5FA2046BDE8104068
:10B1F000FEF7DDBA9C2B0020257300000D0A00002D
:10B2000038B5C3880D46044633B114A0009015A28A
:10B2100016A12846FEF7BEFA217A05291CD0607ACD
:10B2200048B1A088FEF70EFD164951F8202016A15E
:10B230002846FEF7AFFAA0880021FEF7D7FE0346A6
:10B240001049207A143951F8202001B02846BDE871
:10B2500030400EA1FEF79EBA38BD00001B5B306D7A
:10B26000000000001B5B313B33316D0025734C6FD8
:10B2700067732064726F70706564202825642925C7
:10B28000730D0A009C2B0020257300003C25733EA3
:10B290002025733A200000000349884201D1034869
:10B2A000704700207047000000200040002B002065
:10B2B00070B5012670044FF0E0210025C1F880012F
:10B2C000084C4010C4F84803C4F8080366602F20F7
:10B2D000FFF738FAA660044C2F20A560FFF732FA7A
:10B2E000A57070BD00100140282B002070B50546E8
:10B2F00088690C4600284FF4847128460AD0FFF76D
:10B30000D6F9D5F81805626AE1688854606A401C6D
:10B31000606270BDFFF7CBF9D5F8180570BD1FB599
:10B3200001238DF80030CDE90121D0E900126846F3
:10B3300090471FBD1FB501238DF80030CDE90121D5
:10B34000D0E90012684690471FBD10B5044600685A
:10B350004FF49271FFF7ABF94FF484712068FFF757
:10B36000A6F920680121016010BD000038B5002158
:10B37000012548B101280CD0032809D1FFF7AEF907
:10B38000BDE83840FEF79AB94FF0E020C0F8805190
:10B3900038BD8DF800106846FBF744FE064C207857
:10B3A00008B9FEF76FF9E068401CE060A5709DF8F1
:10B3B0000000FBF75BFE38BD683200203EB5044656
:10B3C00009496846FFF720F908E000BFD0E90021ED
:10B3D0002046904730B16846FFF72DF902980028C3
:10B3E000F4D13EBD11203EBDF8C002003EB504467A
:10B3F00008496846FFF708F907E000BFD0E90021D7
:10B40000204690476846FFF716F902980028F5D1C4
:10B410003EBD000004C1020002498969002900D034
:10B4200008477047D43100202DE9F04114008846C8
:10B4300018D000250E4F032608EB050122460020F8
:10B44000FBF756F90544241A40B93878002809D08A
:10B4500008494FF47A408847761E05D0012038709D
:10B46000002CE9D1BDE8F08100203870FAE7000037
:10B47000642B0020D1C002002DE9F0410746806A0C
:10B4800014468846C8B3002531E000BFB96A05EB11
:10B49000450001EB8006B088801CFE2802D90C20F4
:10B4A000BDE8F0812288401C08F80200208816229E
:10B4B000401C80B2208008F800202088401C80B208
:10B4C000208000EB0801308800F097FB21880844B9
:10B4D00080B22080B28842B1B16871B14044FAF7BD
:10B4E00061FF2088B188084420806D1CEDB297F878
:10B4F0002C00A842CAD80020D2E7FFE70720CFE7F8
:10B500000A78062822F0FF020A7010D2DFE800F065
:10B51000030507090B0D002008E0112006E021209B
:10B5200004E0312002E0122000E022200870704781
:10B5300010B50020FCF790FD08B1FBF717FCFCF7F5
:10B54000E5FC08B1FBF712FC33DF002803D0BDE8AF
:10B550001040FBF70BBC10BD002805D103490120AA
:10B5600048700020FDF726B87047000068320020C0
:10B5700010B51620FBF728FBA0B1114890F8000485
:10B580004009082811D20121814011F0EC0F0CD0A4
:10B590000C4882684FF480016AB1016841F480016F
:10B5A000016010BD42F2010001E042F20200BDE87C
:10B5B0001040FBF7DBBB4FF0E020C0F8001110BDDE
:10B5C00016E000E0743400202DE9F84F204D92463B
:10B5D000894606469846012269461846AF68FCF738
:10B5E00079FE58B3009800210446801C09E000BF92
:10B5F00000EA07035AF8212005EB8303401C491C8D
:10B60000DA604145F4D34FEA164AFDF783F94AEA76
:10B610000041601C384005EB80003C4005EB840293
:10B62000C160D06866F3C50068F3891069F39F2094
:10B6300020F00300401C20F00400D06095F82004A6
:10B6400002E000BFFEF724FB0028FBD1BDE8F88F25
:10B65000243600202DE9F84F1D4C00256846D4E91A
:10B6600001A6FDF761F9002738B30023009A61684D
:10B670001CE0D1F800C00846944503D9ACEB0202A7
:10B680000A6015E0A2EB0C0263440760D0F80CC01E
:10B69000C1698146BCF1000F08D006EB030828F011
:10B6A0007F48C0E9018CC9F81C5005460029E0D14B
:10B6B00028466160FDF714FB03E02846FDF710FB08
:10B6C00010B15046FCF798FFE770BDE8F88F000016
:10B6D000282B00200D4B10B5596831B102680C6859
:10B6E000A24204D8A21A0A60C161586010BD0B467C
:10B6F00003E00B46C969121B21B10C689442F8D3D0
:10B70000A41A0C600260C161D86110BD282B002012
:10B710002DE9F041144E77683D462C4603E0844203
:10B7200004D02546E469002CF9D11BE0D4B1A54230
:10B730000BD1F869706040B90C4901208860002184
:10B74000B160F0702F20FEF7FDFF2168E069E8612D
:10B7500010B10268114401607068874202D0012074
:10B76000BDE8F0810020FBE7282B002000100140FD
:10B770007CB5064600240D468DF800406846FBF770
:10B7800051FC01A800F0EAFA70B105700949466061
:10B790009DF8040048709DF80000FBF767FC14203A
:10B7A000FAF74AFF20467CBD04249DF80000FBF711
:10B7B0005DFCF7E7483300202DE9F041194D6C6836
:10B7C000002C2CD0184800270068A968B846401AF9
:10B7D00020F07F462068B0420CD82146361A074434
:10B7E000E469087C20B181F810808869496988473C
:10B7F000002CEFD129786878814206D1401CC0B274
:10B800006870022801D185F80180064869780C30FB
:10B8100040F82170BDE8F0411420FAF70DBFBDE8F3
:10B82000F0810000282B00200415014070B50C4663
:10B8300005464FF48E71FEF73AFF216AA068415C1D
:10B84000206A401C2062C5F81C1570BD1FB500227F
:10B850008DF800200291816801914261D0E90012C7
:10B86000684690471FBD000038B5017841B10129F5
:10B8700001D002292FD14068BDE83840FBF776BAE5
:10B88000164C154D20782844FBF736FB2078401CD9
:10B89000C0B22918207011F8011C0A2904D00D2902
:10B8A00002D0A188884216D3012812D92078ADF899
:10B8B00000000A4863886A4607490C30FCF79AF989
:10B8C000082806D01328F1D0052802D008B1FBF7CC
:10B8D0004DFA0020207038BDC82B0020A02A00207F
:10B8E0007CB50178244D81B301290BD002292BD1DD
:10B8F0008DF80010C068691C01900122C81DFDF779
:10B9000029FF2EE0406801781C48FBF755FA1B4CD4
:10B91000012618B18DF80060019006E0A068E1688A
:10B92000814205D000208DF800006968684688478C
:10B93000A068E168081AA188884207D80E49012248
:10B94000491CC81DFDF706FF7CBD01E0AE70FBE79A
:10B950000A4809491030FBF714FA30B103208DF87A
:10B960000000696868468847EEE70349012201F153
:10B970000800FDF7FFFEE7E73C2B002054340020D1
:10B980001FB50A4601788DF8001041680191017ACF
:10B990008DF80810C0680390044850F82210001F6A
:10B9A00050F82220684690471FBD0000F42A00206E
:10B9B0002DE9FF470C4605464FF40071FEF77DFE6A
:10B9C00001274FF40178002618B34FF492794946C5
:10B9D0002846FEF767FEE0B149462846FEF767FEB7
:10B9E000C5F8088394F8290000B96F6002208DF82B
:10B9F0000000D5F88004C5F880040390A069029087
:10BA0000E0680190A661E661D4E9001268469047BB
:10BA100028E004212846FEF750FE18B34FF4847145
:10BA20002846FEF73FFEE8B121462846FFF75EFCB8
:10BA3000616AA069884215D1E06938B1E268616A3B
:10BA4000A0612069E6616662E06008E094F8290080
:10BA500000B96F60C5F80883A661E268616A204694
:10BA6000FFF75DFC4FF48E7841462846FEF71AFE3C
:10BA700078B1206A6169884202D294F8280020B324
:10BA800041462846FEF713FE616911B12046FFF7D3
:10BA9000DDFE4FF4A27841462846FEF703FE00285B
:10BAA00018D041462846FEF702FE94F8290000B15E
:10BAB0002F60A06900280DD0A661E268616A04B019
:10BAC0002046BDE8F047FFF72ABC21462846FFF78D
:10BAD000ADFEDEE7BDE8FF871FB50A4601788DF8A9
