:020000022000DC
:1060000000000120756302005D6302005F6302000F
:106010006163020063630200656302000000000028
:1060200000000000000000000000000067630200A4
:1060300069630200000000006B6302006D630200F0
:10604000018602006F630200498A02006F6302004A
:106050006F6302006F630200C58802006F63020075
:106060006F6302006F6302006F6302006F630200E0
:106070006F6302006F6302006F6302006F630200D0
:106080006F630200297102006F6302006F630200F8
:10609000C57102006F6302003DB602006F6302002B
:1060A0006F6302006F6302006F6302006F630200A0
:1060B0006F6302006F630200000000000000000038
:1060C0006F6302006F6302006F6302006F63020080
:1060D0006F6302006F6302006F6302000000000044
:1060E00000000000000000000000000000000000B0
:1060F00000000000000000000000000000000000A0
:10610000000000000000000000000000000000008F
:10611000000000000000000000000000000000007F
:10612000000000000000000000000000000000006F
:10613000000000000000000000000000000000005F
:10614000000000000000000000000000000000004F
:10615000000000000000000000000000000000003F
:10616000000000000000000000000000000000002F
:10617000000000000000000000000000000000001F
:10618000000000000000000000000000000000000F
:1061900000000000000000000000000000000000FF
:1061A00000000000000000000000000000000000EF
:1061B00000000000000000000000000000000000DF
:1061C00000000000000000000000000000000000CF
:1061D00000000000000000000000000000000000BF
:1061E00000000000000000000000000000000000AF
:1061F000000000000000000000000000000000009F
:10620000354936480A1A02D0072291438D4634494F
:1062100034480A1A06D00722914381F309880222E2
:1062200082F3148830483149314A00F044F831484B
:106230003149324A00F03FF831483249324A00F0E1
:106240003AF832483249334A00F035F83248334997
:10625000334A00F030F833483349344A00F02BF821
:1062600033483449344A00F026F83448344900228F
:1062700000F02CF833483449002200F027F8334866
:106280003349091A082902DB002202604160314AC1
:1062900090471F481F49884205D00268043003B464
:1062A000904703BCF7E700208646EC46002000211B
:1062B000294A9047FEE7884207D0521A05D0037852
:1062C00001300B700131013AF9D17047884202D098
:1062D00002700130FAE770470000012000E0002062
:1062E0000000012000000120E4DD0200982A0020C7
:1062F000F82A0020D4630200D463020050CE0200CA
:10630000E4DD0200982A0020982A002044CF0200F1
:1063100044CF020044CF020044CF020044CF020029
:1063200044CF020044CF020044CF0200E4DD02006B
:1063300044DE0200F82A0020F82A0020F82A002073
:10634000D43C0020D43C0020D83C0020D83C002085
:10635000D85C00209D630200299D0200FEE7FEE755
:10636000FEE7FEE7FEE7FEE7FEE7FEE7FEE7FEE705
:10637000704700BF1048804710484FF0070188431E
:1063800085460F4880470F48016841F4700101605D
:10639000BFF34F8FBFF36F8FFFF732BF0A480B4930
:1063A0000B4A884207D0521A05D0037801300B708F
:1063B0000131013AF9D170477163020000000120F8
:1063C0001D80020088ED00E044CF0200982A0020E2
:0463D000982A0020E7
:1063D40000487047CC3C00207047000007B5044BD0
:1063E4000093044A402300F032F803B05DF804FB44
:1063F400FD630200F92A00202DE9F843894614467A
:10640400B2B10F4B0F4E0325002743F0010822467B
:1064140009EB0701002003F01BFE0744241A48B9C6
:1064240033782BB14FF47A40C047013D02D1357027
:10643400BDE8F88301233370002CE8D1F8E700BFEE
:1064440050CF0200F82A0020704703F035BEF0B5A3
:1064540095B01C46164608460D4601F0EDFC1A9B05
:106464000D93CDE9086400242346082205A9284693
:106474000A948DF82C400C9401F0FBFC079B0293CA
:10648400069B03939DF814308DF8114003F003022A
:10649400012A1DD1BDF81440059EC3F3C203C4F301
:1064A40083148DF81030A20008230EA9284601F0A9
:1064B400E0FCC6F3952608AB0093224602AB0EA976
:1064C400304600F05DFB284601F0BAFC15B0F0BD83
:1064D400022AF8D1BDF81640C3F3C203A4098DF80B
:1064E40010300827082C264628BF08263B4632468B
:1064F4000EA9284601F0BDFCA41B08AB02AA314634
:106504000EA8374400F0A0FB002CEBD1DBE7000021
:1065140008B5FFF79AFF0421034800F09FFA034BE4
:1065240001225A7108BD00BF34CF0200982A00200E
:10653400037813F0040216D003F00303012B03D0F5
:10654400022B09D0012070470A6800880232C0F388
:10655400831002440A60F5E70B684288023303EBB8
:1065640092130B60EEE71046704700002DE9F04FE0
:1065740087B000230446851C0DF107000F469046A2
:106584008DF8073001F01AF9454806683E60D0E9F5
:106594000132134401339B1B824600F21C4600F572
:1065A400836900F21447AB421BD30022B8F1000FF9
:1065B40070D0052363F3070264F38912DAF800103C
:1065C400DAF808309DF807000B4003330D444AF80D
:1065D4002320CAF8005001F015F9012007B0BDE8E6
:1065E400F08F0121304601F06AF9484601F07DF947
:1065F400384601F07AF9DAF80400DAF808B00290C3
:1066040000EA0B0003300AEB800002A9FFF790FFB9
:10661400029B50BB0BEA03020AEB820203F1020C59
:10662400D2680392013303EA0B0B0AEB8B0B02F0E3
:106634000302012ACDF808C0DBF80C1022D0022A8C
:1066440016D08346384601F053F910B1029BCAF8BC
:1066540004305946304601F032F9DAE90123134493
:10666400DAF8002001339B1A9DE70BEA0300C9E71F
:10667400BDF80E309B0903334FEA114B0CEB930327
:106684000293DFE7BDF80C30C3F383134FEA114BD9
:106694006344F5E7062363F3070264F39F528DE72F
:1066A4000C2C00200B4B0C48FF2210B59A600022E2
:1066B400C3F81824C3E90022C3F8142483F820245F
:1066C40001F073FB044610B9044801F01BFC20469A
:1066D40010BD00BF0C2C0020B8CE020074CF020005
:1066E40030B50A4C71B10A4A0A49121BD208002378
:1066F4009A4201D1002030BD31F82350854202D0A6
:106704000133F5E7034654F83300F4E7CCCE020036
:1067140034CF0200982A0020094B013903EBC00052
:10672400032909D8DFE801F00A02040604207047AF
:106734000079704740797047002070470220704705
:10674400CCCE0200034BD3E90030C31A584258415F
:10675400704700BF0C2C00202DE9F04387B0FFF7F1
:10676400F1FF0646002840F0FB807E4DC5F8180472
:10677400BFF34F8F6868AC6802902040033005EB8C
:10678400800002A9FFF7D4FE029B18B1D5F81824A3
:10679400002A5FD004EA0302991C013305EB82024C
:1067A400234005EB8303D268DB68049302F0030300
:1067B400022B0392029162D1BDF80E306A484FEA6F
:1067C4009318B8F1500FC14628BF4FF0500969F330
:1067D4008F1309F10801ADF80E3001F0FEFA0746F7
:1067E400002800F0A88001F027FB03A90023082259
:1067F400384601F034FB029924EA01060136B6005A
:10680400B14535D95FFA89F97EB3F6B2A9EB060929
:10681400214003315FFA89F4B146544E05EB8101FE
:1068240008234A46384601F01AFB36B109F1080339
:1068340022463146384601F012FB029B08F1030858
:1068440003EB98030293D5F81834002B4BD1D5F8F9
:1068540010445BE02A689A4204D86A60304607B064
:10686400BDE8F08304EA030088E740493446D7E7EB
:106874002140033108234A4605EB8101DAE7012B65
:1068840059D1BDF80C303848C3F38311062928BF09
:10689400062161F3891302318900ADF80C3001F04F
:1068A4009CFA0746002846D001F0C6FA00230822C5
:1068B40003A9384601F0D3FA0026BDF80C20C2F330
:1068C4008312B300964203F10803BCD202994A1C16
:1068D40021400331029205EB81010422384601F084
:1068E400BEFA0136E9E7384601F0AAFAFFF72AFFB3
:1068F40080F00100C6B2B1E7E3685B7923B1236895
:1069040039461B6820469847E3681C68002CF3D17D
:10691400384601F095FA0DF107008DF8074000F0B4
:106924004DFFD5F818340BB9029B6B609DF8070036
:1069340000F068FFDAE7D5F8104454B90C4B0D4861
:106944000D49C01AC008000440F0020000F06EF8BF
:10695400CCE7236820469B689847E3681C68ECE70B
:1069640000267BE70C2C0020B8CE0200182C002057
:10697400CCCE0200F4CE020080CF02002DE9F74F06
:10698400284C80460F46924601A9012218469B4690
:10699400D4F80890FFF7EAFD80B3019D0026A91CF6
:1069A4005E4506EB010233D100211F4800F05CFF75
:1069B40080F310006A1C02EA090204EB820200045C
:1069C40005EA0903033340EA1840D06014F8232091
:1069D40068F3C50204F8232034F8232066F38912EF
:1069E40024F8232054F8232067F39F2244F823201B
:1069F40002F0F80242F0010204F8232094F8203453
:106A04001BB1FFF7A9FE0028FBD103B0BDE8F08F4E
:106A140009EA020204EB82025AF82630D3600136F6
:106A2400BEE700BF0C2C00202830002000231A46AB
:106A3400FFF7A4BF07B50123019201AAFFF79EFF48
:106A440003B05DF804FB07B5CDE9002302236A46D1
:106A5400FFF794FF03B05DF804FB000030B50F4965
:106A6400D1F81024002314463CB9C468237152B9E8
:106A7400C1F810042260184630BDE46825799D42AF
:106A840006D02468F0E7D268116821601060F2E74C
:106A940001330A2BE7D14FF0FF33ECE70C2C002035
:106AA400094A38B50123D2F8104482F820341D462F
:106AB40004B938BDE3685D71236820465B68984774
:106AC400E3681C68F4E700BF0C2C0020037A052B54
:106AD40010B50C460FD0437A23B1084A0849204622
:106AE40000F069FF0749204600F065FF2046BDE835
:106AF400104000F055BF002AF8D0F3E7CBCF0200D6
:106B0400D0CF020082D60200C38873B504460D4676
:106B140033B1144A00921449144A284600F04BFF3A
:106B2400217A05291CD0637A4BB1A088FFF7F4FDC4
:106B34000F4B104953F82020284600F03CFF227ADE
:106B44000D4BA08853F822600021FFF7C9FD0B49C3
:106B540003463246284602B0BDE8704000F02BBF21
:106B640002B070BDCBCF0200DBCF0200D3CF020056
:106B740098CF0200D0CF020000D00200F3CF020071
:106B84002DE9F04385B01F460C9D002306460C46B4
:106B9400904695F80C902B7329463846FFF7B4FFBE
:106BA400B8F1060F09D8DFE808F00412181F2833DB
:106BB40040003146284600F0FEFE002229463846B1
:106BC400FFF784FF85F80C9005B0BDE8F0832268D8
:106BD4003146284600F0EFFEEFE7D4E900233146C2
:106BE400284600F0E8FEE8E7A36800933146D4E9BC
:106BF4000023284600F0DFFEDFE7E3680193A36883
:106C040000933146D4E90023284600F0D4FED4E7AB
:106C140023690293E3680193A36800933146D4E99E
:106C24000023284600F0C7FEC7E76369039323697E
:106C34000293E3680193A36800933146D4E90023E7
:106C4400284600F0B8FEB8E708292DE9F84F804639
:106C54000E4617461C463AD8002593F80C901D732F
:106C640019461046FFF750FFDFF884A0DFF884B020
:106C7400AE422ED918F805205946204600F09BFE56
:106C84000135082DF4D11849DFF86CB0204600F026
:106C940092FE4FF0000A564520D918F80A507E2D6E
:106CA40003D8284605F0B6FA00B92E252A465946D7
:106CB400204600F080FE0AF1010ABAF1080FEAD179
:106CC400012221463846FFF701FF84F80C90BDE805
:106CD400F88F5146204600F06EFED1E70349204666
:106CE40000F069FEE7E700BFC6CF0200C4CF020090
:106CF400C2CF0200BCCF0200C8CF02002DE9F04F82
:106D0400394E87B04FF00009384B1B785FFA89F58C
:106D1400AB4202D807B0BDE8F08F354BD3F800A0E2
:106D24001AF835000124D6E9001EA0F12002C0F1B2
:106D3400200304FA02F224FA03F3134304FA00FCD6
:106D4400009301EA0C030293009B0EEA03030393EE
:106D5400DDE9022313430AEBC50B41D0009B21EA72
:106D64000C012EEA0303C6E9001301F09FFD1AF893
:106D740035502049A5F12002C5F1200304FA02F29E
:106D840024FA03F31343D1E900C2AC40134004EAEC
:106D94000C0105930024C3B2CDE90034009A049198
:106DA400C5F12003A5F1200122FA03F302FA01F848
:106DB40048EA03081346AB401F46DDE90434444562
:106DC40008BFBB420CD1DBF804304BB19BF8011077
:106DD4004A1E51425141081A4142414128469847AE
:106DE40009F1010990E700BFF8300020C830002005
:106DF40000310020F03000202DE9F0418046204889
:106E040000F0C0FBD0BB0125A8F12004C8F1200389
:106E140025FA03F305FA04F41C431A4BD3E90012D0
:106E240005FA08F501EA050602EA040756EA07002E
:106E34001E461DD1404601F039FD134BD3E9001223
:106E440088B129432243C3E90012D6E900231C4335
:106E54000E4B0B4819681543C6E900540022BDE8DF
:106E6400F04100F049BB21EA050122EA0402EAE705
:106E740021EA050522EA0404C3E90054BDE8F081CF
:106E8400D0300020F8300020F0300020CC3000203A
:106E9400042A2DE9F34105460C4616463AD901F079
:106EA40041FCD8B11C4B1D491D601D4BDFF884808B
:106EB4001C701C4B00221E600023C1E900231A49E8
:106EC400C1E90023013CE4B200260327FF2C0CD1C6
:106ED400164A1748002100F0FDFA03E001F0EAFB2E
:106EE4000028DFD002B0BDE8F08123B205EBC30275
:106EF40001A992788DF8052015F833008DF8066005
:106F040042468DF8047001F017FC013CE4B20028FD
:106F1400DCD0E7E70720E5E700310020F03000206F
:106F2400C8300020CC300020F8300020016D020071
:106F340060D00200FD6D020070B5084D084E0024BB
:106F44002B789C4201D3002070BD3368012113F8D3
:106F5400340001F065FC0134F2E700BFC8300020C2
:106F6400003100201FB50021039001AA44F2010062
:106F7400CDE9011100F004F805B05DF804FB000050
:106F840010B572B6FFF78CFDFFF7E6FB0028FBD1C6
:106F9400104B114C1149E41AE408240444F0010094
:106FA400FFF744FD0E4B1B68DB0700D500BE0D49FF
:106FB40044F00200FFF73AFDBFF34F8F0A490B4B31
:106FC400CA6802F4E0621343CB60BFF34F8F00BF83
:106FD400FDE700BFCCCE0200F4CE020064D0020074
:106FE400F0ED00E070D0020000ED00E00400FA05CE
:106FF40049B152B1531E1A4007D1826001608380A7
:10700400C260104670470E2070470920704710B5C3
:107014008468C2688388121B934208D3C2681340F1
:107024000268D154C3680133C360002010BD04203A
:10703400FCE78268C3689A420AD082688388134056
:107044000268D35C0B70836801338360002070474F
:1070540005207047094A537891780133DBB299428D
:1070640008BF0023117899421FBF0370507818237A
:1070740003FB002014BF04300020704704310020BB
:1070840073B5054600240DF107000E468DF8074040
:1070940000F094FB0DF10600FFF7DCFF90B10670E1
:1070A400094B9DF8062045605A709DF8070000F0D2
:1070B400A9FB24B9054B4FF48012C3F800212046E4
:1070C40002B070BD0424F0E70431002000E100E0C8
:1070D400024B4FF43C6043F00103184780D0020098
:1070E40038B50C4B0C4C4FF40032C3F8802001250A
:1070F4004FF48033C4F84833C4F808336560FFF7AD
:10710400E7FF064BA56000241C60FFF7E1FF044B7A
:107114001C7038BD00E100E0001001402032002066
:1071240011320020F8B51F4B1F491B680025C1F818
:107134004051C1F84451C1F84851C1F84C51C1F80B
:107144000051C1F804514BB3D1F8044517490968FB
:10715400641A24F07F442F461A68A24209D8A41A5C
:1071640015441A7CDE691AB11F74D3E905209047CF
:10717400AEB90F4A0F4B11781B788B4205D10133FE
:10718400DBB2022B08BF0023137012780A4B43F8BA
:1071940022500A4B4FF48012C3F80021F8BD334645
:1071A400DAE700BF24320020001001402032002022
:1071B4001D3200201C3200201432002000E100E0C7
:1071C4002DE9F04FA04AA14913780978A04D9942BE
:1071D40085B03CD00133DBB2022B08BF002313700F
:1071E4009C4912789C4B0F6853F822003B1823F0FB
:1071F4007F4300220B602B6816461446944613B94D
:1072040042B12B6006E0196881420ED902B12B60AD
:10721400091A19604FF001082B68DFF844A20193A2
:107224000027BEB9DFF840B266E0401A0C44D968C2
:10723400C3F800C0D3F81CE031B13A1922F07F4200
:10724400C3E90121DE611E4601227346D7E7002609
:10725400B046E1E73446F6697E4A63681268DFF8AF
:107264000CC2A068991A21F07F41614500F2A58003
:1072740001442160012222742A680023C4E90133F5
:10728400E361002A40F0A2802C60CAE75A1C9BF8F4
:107294000210D2B291428BF8002004BF00228BF876
:1072A4000020182202FB03B31A799C68022A1CD01E
:1072B400032A12D0012A1FD1207CE8B9D3E9031292
:1072C400A2605A69E2609A69644BA2611B78002B40
:1072D4000CBF0B4603466360BEE700222B681146D1
:1072E400002B66D142B12B6006E029680A46894624
:1072F400002A59D1002323749BF800309BF8012005
:107304009A42C3D12B682FB9019A9A4202D1B8F19B
:10731400000F43D0002B73D0D3F800A0504D4D4B39
:10732400D5F804751C68DFF848813E1B98F80030D6
:1073340026F07F4603369BB94FF48033C5F84433B7
:10734400C5F80433474B4FF400324FF00109C3F83A
:1073540080211A60C5F80090FFF7BAFE88F8009003
:10736400B2452CBF5444A41924F07F44C5F84045C9
:10737400D5F80435DB1B23F07F43E41B033324F0EF
:107384007F44A3420AD9D5F80435C5F84035FFF740
:107394009FFE344B4FF40032C3F800212F4B0022E0
:1073A4001A7005B0BDE8F08F94422CD09146D26992
:1073B4009EE719740122DB6992E7D31A23F07F4315
:1073C400834234BFC31A0023236053E72168136840
:1073D400994213D8591A1160E26155E7091AD8691C
:1073E4001A4638B1034618688842F7D3401A186021
:1073F400184613462160E061DC6112E71346F2E7A8
:10740400FFF76EFECAE74C4511D1CB692B6073B907
:10741400DFF840E00120CDE90212CAF80800CEF8F6
:1074240000300E4B1870FFF753FEDDE902121368AB
:10743400D269C9F81C2012B11068034413602B6888
:10744400994218BF012755E71C3200201D32002045
:107454002432002020320020143200201032002078
:107464000010014000E100E004310020FEFF7F0035
:107474001132002008B5FFF733FE104B00200B2219
:1074840018809A700E4B18600E4B18700E4B1870C3
:107494000E4B4FF48012C021C3F8802183F81413DB
:1074A4001A6002F18042A2F56F22C2F8080583F83F
:1074B4001113074BD2F804251A6008BD04310020CB
:1074C400243200201C3200201D32002000E100E0A4
:1074D40020320020074B9B784BB132B128B10368AE
:1074E400187C20B959745A617047072070470820E6
:1074F400704700BF043100202DE9F7431E4FBB78CD
:1075040005460E469046A3B398B304292FD9436980
:107514007BB3437C0024012B0DF107000CBF89468B
:10752400A1468DF8074000F049F90DF10600FFF778
:1075340091FDD0B101230370104B4560D3F804359D
:10754400C0E90498C0E902369DF806307B709DF8C6
:10755400070000F057F924B9094B4FF48012C3F81F
:107564000021204603B0BDE8F0830424EFE707249C
:10757400F7E70824F5E700BF0431002000100140BC
:1075840000E100E0064A92783AB130B1426922B192
:10759400002202740221FFF773BD0820704700BF68
:1075A400043100200648074A03780749D35C0122C6
:1075B40013B1043001F07EBE0C3001F067BC00BF93
:1075C400A02A00208C320020503200200648074AAE
:1075D40003780749D35C012213B1043001F01ABEC9
:1075E4000C3001F0FDBB00BFA02A00208C3200202B
:1075F4005132002037B50578012D05D0002D30D04B
:10760400022D23D003B030BD43681C4C19782046AA
:10761400FFF7FDFC78B18DF800500190184B6846D7
:107624001B689847A168E368A2885B1A9A4209D349
:10763400FFF7B8FFE6E7A268E3689A42F2D08DF854
:107644000000EBE70F4B01221A70DBE7C3688DF8EB
:1076540000500193FFF7A6FF094B68461B68984743
:10766400D0E709490948FFF7E4FC10B9FFF7AEFF7A
:10767400C8E703238DF80030EEE700BF2C3200206A
:10768400283200203C3200205132002040320020B9
:10769400F0B51F46234B89B006461A600C460029F4
:1076A4003DD08A8820480968FFF7A2FC002834D11D
:1076B400A289A1681D48FFF79BFC00282DD11C4D11
:1076C4000FCD6C460FC495E80F0084E80F00736972
:1076D4000693337C174A18488DF81C70003318BF82
:1076E40001238DF81430737C002B14BF0E23002368
:1076F4008DF81530F3680293B368039333680193EC
:1077040069467368009300F011FF30B90B4B187091
:107714003368013301D0FFF745FF09B0F0BD0720FE
:10772400FBE700BF283200202C320020403200202A
:1077340088D00200F9750200A02A00203C32002003
:1077440070B5084C014608482678FFF772FC0546D8
:1077540036B100232370FFF725FF08B1FFF702FCC1
:10776400284670BD3C3200202C32002010B5014662
:107774000E48FFF74CFC0446A8B90D480D4A03789F
:10778400D35C63B1043001F089FD60B90A4907484C
:10779400FFF74FFC38B9BDE81040FFF717BF0C30B6
:1077A40001F068FBF1E7204610BD00BF4032002025
:1077B400A02A00208C3200205132002070B5EFF353
:1077C400108672B60C4A946801239CB993600B4BE3
:1077D4000B4DD3F8801029401160C3F88050D3F8C2
:1077E400841051604FF0FF32C3F88420047006B94E
:1077F40062B670BD0370FAE75432002000E100E085
:10780400FC06FFBD084B9A6810B55AB150B9EFF3A6
:10781400108172B6054A1C6814605C6854609860F4
:1078240001B962B610BD00BF5432002000E100E08F
:1078340001F01F024B090121914000EB830000F08D
:107844001DB801F01F0301229A404B0900EB83008D
:10785400D14300F029B84B0901F01F0150F823006F
:10786400C84000F00100704750E8002F0B4640E884
:10787400003C9CF0000FF7D11046704750E8003FE1
:1078840043EA010240E8002C9CF0000FF6D11046B8
:10789400704750E8002F02EA010340E8003C9CF0E6
:1078A400000FF6D11046704750E8003F03EA01028A
:1078B40040E8002C9CF0000FF6D11046704750E8C9
:1078C400003F03EB010240E8002C9CF0000FF6D1CE
:1078D4001046704750E8003FA3EB010240E8002C3B
:1078E4009CF0000FF6D1104670470121FFF7C6BF88
:1078F4000021FFF7CEBF10B590B1D0E90123016894
:107904009B1ADBB20A60013BDBB2FF2B026802D197
:107914000020107110BD11684C1C14600B70F2E74C
:107924000E20F7E737B5054600240DF107008DF862
:107934000740FFF743FF2A686B68116899420ED924
:10794400481E106011F8014CEB68298A01FB0434CD
:10795400AB6811791B1ADBB2994238BF13719DF8D9
:107964000700FFF74FFF204603B030BD37B505468B
:1079740000230DF107000C468DF80730FFF71EFFBA
:107984002A681368591C1160E968641A298AB4FBCF
:10799400F1F41C709DF80700FFF734FF03B030BD0D
:1079A400826810B504462AB14369016800699847A2
:1079B4000023A36010BD0EB403B5039921B104AB39
:1079C40001AA019300F074F802B05DF804EB03B06F
:1079D40070470A2938B504460D4602D10D21FFF738
:1079E400F8FFA3682268591CA160D554D4E9013278
:1079F4009A4204D32046BDE83840FFF7D1BF38BDD2
:107A04002DE9F84F9946DDE90A4317468246884630
:107A14000A460126BA420FD24E4538BF4E4613F0ED
:107A2400010B01D164B900240125B9F1010F1AD960
:107A340009F1FF397D43F8E7B2FBF7F20136E9E7D4
:107A44009B070ED5B9F1000F0CBF30252025A642A7
:107A5400EAD2013C29465046FFF7BBFF002CF6D181
:107A6400E1E72025F3E7B8FBF5F39F42E2D9DFF81D
:107A74003C90B8FBF5F3504619F8031005FB138846
:107A8400FFF7A7FFB5FBF7F3BD4207D2BBF1000F29
:107A940002D00CB1A64203D3BDE8F88F1D46E8E737
:107AA40020215046013CFFF794FFF2E7A8D00200E2
:107AB4002DE9F74F054617468846002900F0318125
:107AC40018F8011B49B92B7B002B00F02A812846AA
:107AD40003B0BDE8F04FFFF763BF252940F0C08035
:107AE400002698F800302D2B424608F1010823D0D7
:107AF400302B24D02B2B25D000242A2B02F101017A
:107B040023D13B681A1D1B683A601C440A4613784B
:107B14002E2B26D101324FF0000A104610F8011B1B
:107B2400A1F1300CBCF1090F1DD80A2303FB0A1381
:107B3400A3F1300A0246F0E746F00106D1E746F029
:107B44000206CEE746F00406CBE711F8013CA3F1A8
:107B540030000928DBD80A2202FB0434303C0A46F0
:107B6400CBE74FF0000A12F8011B01F0FB00682874
:107B74009046F8D069290ED04AD8582964D006D83E
:107B840025296DD098F80030002B99D19BE7632903
:107B940062D06429F6D13A68D2F80090111D89EABE
:107BA400E9723960A2EBE9724FF0010B092A5BDC40
:107BB400D34538BFD3462CB1B9F1000F01DB7107AF
:107BC40000D5013CB20702D5BAF1000F04D0F30787
:107BD40002D4002C4ED10024B9F1000F52DAC9F1BD
:107BE40000092D212846FFF7F4FE06F00302022ABD
:107BF40005D1BAF1000F02D1002C47D10024CDE900
:107C0400004653460A2249462846FFF7F9FEB9E7DB
:107C140073294CD014D87029B4D13B681A1D3A602A
:107C2400302128461C68FFF7D4FE78212846FFF748
:107C3400D0FE00220823CDE9003221461022E3E7DA
:107C440075292BD078299DD139680A1D3A60CDE970
:107C540000465346102228E03B681A1D19783A6002
:107C64002846FFF7B6FE8DE70A230BF1010BB2FBA2
:107C7400F3F29BE7A345AFD220212846013CFFF74E
:107C8400A8FEA6E77007B0D52B21ABE7A345B6D273
:107C940030212846013CFFF79CFEADE73968CDE969
:107CA40000460A1D3A6053460A220968ACE73B685D
:107CB4001A1D3A60F107D3F8009020D4B9F1000FEF
:107CC40025D0484604F0EAFC0646B44200D9C4B9BB
:107CD40009F1FF3920E028460136FFF77AFE19F84A
:107CE40006100029F7D1A642BFF44CAF002C3FF494
:107CF40049AF20212846013CFFF76BFEF3E700263D
:107D0400EDE720212846013CFFF763FEDDE74E4600
:107D1400DBE72846FFF75DFE19F8011F0029F8D1BB
:107D240030E703B0BDE8F08F2DE9F047B0F80690D6
:107D34004479D2F800A09DF8208009FB04F4043CA7
:107D440006460AEB0300A0420F4688BFA4EB030AD1
:107D5400191DC2F800A0B1FBF9F509FB15114DB9C5
:107D6400A9EB0104544528BF5446BAF1000F04D1CD
:107D7400BDE8F0873668013DF1E704317B197018DE
:107D84002246B8F1000F0ED001461846AAEB040AA9
:107D940004F006FCD145254436684C464FF00001FA
:107DA40028BF5446E1E71946F0E7FFF7A4BDF8B54C
:107DB40046790146721E0546002393422D6803D37B
:107DC4000024A64202D8F8BD0133F6E70F6828461E
:107DD400FFF7CCFD01343946F3E72DE9F843068A71
:107DE400CD1C0746FFF79EFD043E35440446B5FB13
:107DF400F6F5F0B14FF48073EDB28380C680013D97
:107E0400076081464FF00008A84512D23846FFF7B4
:107E140089FD064648B163790133637108F10108AD
:107E2400C9F8000007608146EEE72046FFF7BFFF70
:107E340034462046BDE8F88301210430FFF73FBDF6
:107E440010B5012104460430FFF744FD10F0FF0F84
:107E540004D12046BDE81040FFF7A9BF10BD1FB5EF
:107E640003920022009203AAFFF75EFF05B05DF8BB
:107E740004FB1FB503920122009203AAFFF754FFEB
:107E840005B05DF804FB41DF70470000064B10B5F8
:107E940000241C70054B1C60BFF35F8F0449054828
:107EA40000F039F8204610BD683200206C32002002
:107EB400B8D002006032002007B500230DF107009E
:107EC4008DF80730FFF77AFCF1EE103A23F09F03A8
:107ED400E1EE103ABFF35F8F094B4022C3F88421CF
:107EE4009DF80700FFF78EFC03F08CFB20B1FFF731
:107EF400CAFF03B05DF804FB20BF40BF20BFF8E712
:107F040000E100E0836800225A609A60C3E9042219
:107F1400DA601A6070470B684A684360934208BF8E
:107F24000023016008BF43607047436843B102689F
:107F3400916852680B449342436004BF002343603A
:107F44007047000010B50D49A1F59472914201D813
:107F540000200FE08B1ADB1003EBD3735B1002EBF2
:107F6400C30452F83330834205D802D204F1080224
:107F7400ECE7606810BD2146E8E700BF08D20200C4
:107F840008B5FFF7DFFF024B002808BF184608BDFD
:107F9400CDD0020010B50446C0B2FFF7E7FB20467F
:107FA40010BD00000C4B1B78062B10D10B4B1B682B
:107FB4001A070CD10A4B186800F0F003302B08D0D4
:107FC40000F0E000A0F140035842584170470020FF
:107FD40070470120704700BFE00F00F0E40F00F08D
:107FE400E80F00F0094B1B78062B0CD1084B1B68DB
:107FF4001A0708D1074B186800F0F000A0F130030D
:108004005842584170470020704700BFE00F00F00D
:10801400E40F00F0E80F00F008B5FFF7C3FF28B144
:108024007D4B7E4A1B68C3F304231360FFF7DAFF1A
:1080340010B17B4B7B4A1A60FFF7B4FF28B17A4B2F
:108044007A4A1B68C3F342331360FFF7CBFF20B1B6
:10805400774AD36823F08073D360FFF7A3FF40B15E
:108064004FF080430022C3F80C21C3F81021C3F859
:108074003825FFF7B7FF10B16E4B03221A60FFF7E4
:10808400B1FF40B16C4B05221A6001229A670022AD
:108094009A603F225A60694B1B78062B50D1684B7B
:1080A4001B6819074CD1674B1B6803F0F003502B76
:1080B40046D14FF08052644BD2F80414C3F8201513
:1080C400D2F80814C3F82415D2F80C14C3F82815F0
:1080D400D2F81014C3F82C15D2F81414C3F83015C0
:1080E400D2F81814C3F83415D2F81C14C3F8401588
:1080F400D2F82014C3F84415D2F82414C3F8481550
:10810400D2F82814C3F84C15D2F82C14C3F850151F
:10811400D2F83014C3F85415D2F83414C3F86015E7
:10812400D2F83814C3F86415D2F83C14C3F86815AF
:10813400D2F84014C3F86C15D2F84424C3F870255F
:10814400FFF730FF28B1414B414A1B6803F04F034E
:108154001360FFF727FF48B14FF08043D3F80024A2
:10816400D20744BF6FF00102C3F80024394B1B68E7
:10817400062B08D1384B1B68062B01BF374A1368FE
:1081840043F480631360364AD2F8883043F47003B2
:10819400C2F88830BFF34F8FBFF36F8F4FF01023B7
:1081A400D3F80022002A03DBD3F80432002B2FDAA1
:1081B4002C4B0122C3F80425D3F80024002AFBD059
:1081C4004FF010221521C2F80012D3F80024002A1F
:1081D400FBD04FF010231522C3F80422214B1A467A
:1081E400D3F800140029FBD00021C3F80415D2F8F9
:1081F4000034002BFBD0BFF34F8F19491A4BCA68C8
:1082040002F4E0621343CB60BFF34F8F00BFFDE77E
:10821400164B174A1A6008BD24030010403501406C
:1082240074C007400DF0ADBA440200103C05004094
:10823400F0ED00E0A005004010560040E00F00F013
:10824400E40F00F0E80F00F000C0004058020010F6
:10825400E40E004030010010340100103C170040CF
:1082640000ED00E000E001400400FA05B42A00201B
:108274000090D003054A4FF0A043105CD3F80435B6
:1082840023FA00F0C04300F001007047C6D5020095
:10829400044B1A5C012393404FF0A042C2F80C3502
:1082A400704700BFC6D50200044B1A5C01239340FB
:1082B4004FF0A042C2F80835704700BFC6D502008F
:1082C40008B50020FFF7F0FF0120FFF7EDFF0220C3
:1082D400FFF7EAFF0320BDE80840FFF7E5BF08B554
:1082E4000020FFF7D5FF0120FFF7D2FF0220FFF7A0
:1082F400CFFF0320BDE80840FFF7CABF074A4FF08D
:10830400A041105CD1F804350122824022EA030026
:108314001340C1F80805C1F80C357047C6D50200F2
:10832400054A4FF0A043105CD3F8103523FA00F04F
:10833400C04300F001007047C2D502000D2809D0E7
:108344000E2809D00F2809D010280CBF03204FF0A5
:10835400FF307047002070470120704702207047AB
:10836400014B185C704700BFC2D50200C20708B5B4
:1083740001460CD54FF0A0430322C3F84427C3F8A9
:108384004827C3F84C27C3F85027FFF799FF8B07FA
:108394000AD54FF0A0430C22C3F83427C3F838277A
:1083A400C3F83C27C3F8402708BD000038B5074C84
:1083B400051E04F1080318BF1C4623682BB11A6874
:1083C40022605B6828469847F7E738BD783200207A
:1083D40020B9054B01225A70FFF7E8BF012802D1EA
:1083E400014A9070F8E770477032002020B9034BBF
:1083F40001225A70FFF7DABF704700BF70320020C5
:1084040038B50B4C237883B90A486360A3602361B1
:10841400E36000F0C9F8054603F0F4F808B900F089
:10842400CFF801232370284638BD8525FBE700BF1C
:1084340070320020D583020037B50B4C00230DF1B8
:1084440007008DF80730FFF7B9F9E368013BE360F3
:10845400E56815B900F0C6F8A5709DF80700FFF7A8
:10846400D1F903B030BD00BF70320020012813B52C
:1084740009D018B103281CD002B010BD0F4B012243
:10848400C3F88020F8E70E4C00230DF107008DF8A7
:108494000730FFF793F923780BB9FFF7B1FFE368CF
:1084A4009DF807000133E3600123A370FFF7AAF9E5
:1084B400E2E700F085F8FFF7BFFFDDE700E100E049
:1084C400703200201FB503788DF8003043680193A3
:1084D40083688DF80830C3680393054A054B6846E2
:1084E40053F8213052F82110984705B05DF804FB89
:1084F40084320020883200201FB503788DF80030C4
:108504004368019383688DF80830C3680393054A70
:10851400054B684653F8213052F82110984705B0AE
:108524005DF804FB8432002088320020F0B5194B3A
:10853400067891F81DE043F82620174B94460A6903
:1085440043F82620154B03F806E00C4607460FCCEB
:1085540089B06D460FC594E80F0085E80F000496B6
:10856400BEF1000F0AD0BCF1000F0D4A694608BFE6
:108574000022381D00F08CFD09B0F0BDBCF1000FE5
:10858400084A694608BF002207F10C0000F06EFBA0
:10859400F2E700BF88320020843200208C320020B1
:1085A400C9840200FD840200044A137923B901211D
:1085B40010609180184670478520704790320020E3
:1085C400074B1A68D2075FBFC02283F80023012239
:1085D4001A604FF080430122C3F81825704700BF8A
:1085E40000E100E0044B01221A604FF08042D2F80F
:1085F4001834DB03FBD470470C000040154B07B55F
:108604001A687AB100221A601B680093009B4FF02D
:1086140080430122C3F808230F4B587910B95A71CB
:108624001B6898470D4B1A6882B100221A601B68B8
:108634000193019B4FF080430222C3F80823064BA9
:108644001B68012003B05DF804EB184703B05DF824
:1086540004FB00BF000100409032002004010040F0
:1086640000F1804000F5C040002382B0036003683D
:108674000193019B02B07047800000F1A040D0F844
:10868400003723F44033C0F80037D0F8003743EA0A
:108694000141C0F800177047054B4FF0FF3207281F
:1086A40043F8202084BF1B1883F84820704700BF7C
:1086B4009832002010B5174C94F8583043BB04F19D
:1086C40030032021FF22013911F0FF0103F8012BAF
:1086D400F9D1C8B2FFF7E0FF01310C29F9D1042226
:1086E40000210D4803F085FF0C4BC02283F80623BC
:1086F40040221A604FF4BE70FFF7B2FF084B4FF0F0
:108704000042C3F80423012384F85830002010BD2C
:108714000820FCE798320020EC32002000E100E061
:1087240000600040034B93F85800003018BF01204C
:10873400704700BF98320020F0B5374B1C1894F9ED
:108744003040002C1C4664DA8D78C5F34005002DBA
:108754000BBF082300230C260826B34201D10420B2
:10876400F0BD54F8237001373FD1261844F8232074
:1087740086F8303015B9E21882F848008A7855072F
:1087840013D4D60733D5820002F1A042D2F80057A1
:1087940025F00205C2F80057204EC50800F007076F
:1087A4000122BA40775D3A4372558A780D7812F007
:1087B400020225D09B0003F1804303F5C04302026B
:1087C400D3F8101521F4473121F44071C3F8101582
:1087D4002D04D3F8101502F4F85205F440352A4359
:1087E4000A43C3F810250020BAE70133B5E74D78F2
:1087F40000F5E0724FF0A046AD0046F82250CBE7FA
:10880400083B234493F8501041EA851583F85050EF
:10881400E9E70820A4E700BF98320020EC320020EA
:1088240038B5204C251895F93020072A18DD224444
:1088340092F848309B09032B0DD14FF0A043D3F895
:108844001035C34013F0010F0CBF02210321BDE812
:108854003840FFF711BF012B14BF03210221F6E7B3
:10886400D3B2072B1CD8930003F1804303F5C04314
:10887400D3F8100540F00100C3F8100502F14000E0
:10888400800080B2FFF7ECFE51B195F9303054F816
:1088940023302BB1012303FA02F2034BC3F8042360
:1088A40038BD00BF98320020006000404FF0A04364
:1088B400D3F8103523FA00F000F0010070470000EF
:1088C4002DE9F04F85B000245A4D01944FF4807285
:1088D400012102F1804303F5C04390B21B68012BD0
:1088E40006D1D5F804330B4202D0FFF7B9FE0C438E
:1088F4000432B2F5907F4FEA4101EAD14E4B1B6836
:10890400012B0AD14FF4BE70FFF7AAFE4FF0A0432B
:1089140044F00044D3F81035019314F0FF0F1AD03B
:10892400464F00250126344210D0AB0003F18043AA
:1089340003F5C043D3F81005D3F8101557F82530C4
:1089440023B1C1F30141C0F3042098470135082D38
:108954004FEA4606E7D1002C64DA00224FF0FF33D9
:10896400CDE90223354D01274FF0000A344E544619
:108974004FF0A04816F9012B531C46D0D2B222F076
:10898400C0094FEAD90104A8084402F0070310F80B
:1089940004CC07FA03F31CEA030F36D005EB090CE9
:1089A40092099CF930C055F82CB0BBF1000F0AD1E4
:1089B400032A2AD10DF1080E1EF801C04CEA030C5B
:1089C4000EF801C001E0032AF4D009F5E07110F8B3
:1089D4000C0C58F821101842C1F3014105D00229AA
:1089E40013D1032A0BD1114604E003290DD1032A24
:1089F40005D102214846FFF73FFE0134E4B2BBF142
:108A0400000F02D011464846D8470AF1010ABAF1CC
:108A1400040FAFD134B14FF0A043019AD3F810350D
:108A2400934202D105B0BDE8F08F0193029B0393FA
:108A34009AE700BF006000407C610040983200204B
:108A4400E8320020014B1B68184700BFF4320020B5
:108A54000E4B984237B50D4602D0002003B030BD0E
:108A640000230DF107008DF80730FEF7A7FE084B31
:108A74001C7914B901221D601A719DF80700FEF7D4
:108A8400C1FE002CE9D01120E8E700BF002000401F
:108A9400F43200200023435082B043580193019BD9
:108AA40002B070470A4610B54FF48E71FFF7F2FF1B
:108AB400136A9168C95C136A01331362C0F81C1508
:108AC40010BD024608B54FF492710068FFF7E2FF4B
:108AD4004FF484711068FFF7DDFF136801221A60F8
:108AE40008BD8B690A4610B54FF4847123B9FFF7AA
:108AF400D1FFD0F8183510BDFFF7CCFF536AD16809
:108B0400D0F81805C854536A01335362F3E70000E0
:108B14001FB501238DF80030044BCDE90110D3E9D2
:108B240000126846904705B05DF804FBFC32002053
:108B340030B54C4AD2F8043313F4007F85B015469F
:108B44004FD0D2F82431002B4BD04FF49271104601
:108B5400FFF7A0FF4FF40173C2F80833424B93F8B8
:108B6400291009B9012151603E4902228DF80020E3
:108B7400D1F88024C1F8802403929A690292DA68B9
:108B840001920022C3E906226846D3E90012904705
:108B94003448D0F81C315BB133490A6A4B699A42B4
:108BA4000A464BD291F82830002B47D1FFF77AFFC1
:108BB4002C4AD2F8443193B14FF4A2711046FFF716
:108BC40069FF294B93F8291009B1012111609A69B1
:108BD4002AB100229A61586AD968FFF799FF05B053
:108BE40030BDD5F804335B07D2D5D5F80831002B56
:108BF400CED01D4C1B482146FFF773FF636AA26960
:108C04009A422346C4D1E269E1684AB12369E36028
:108C14000023606AA261E3616362FFF779FFB7E74B
:108C240094F829200AB901226A600E4A4FF40170AF
:108C3400C2F8080300229A61586AEEE74FF48E7175
:108C44000848FFF727FF51690029B1D0002302919A
:108C540091688DF80030019153616846D2E90013A0
:108C64009847A5E700200040FC3200202DE9F84396
:108C7400564F047991462C2202FB0472064692F860
:108C84002A200D46002A40F09A8051490068FFF7D7
:108C9400DFFE8046002840F0958029683368481C30
:108CA4000BD04FF0A04001228A40C0F8082501F5FE
:108CB400E0724FF0030C40F822C06868421C1FBFEA
:108CC40000F5E0724FF0A04C4FF0000E4CF822E09B
:108CD400AA6995F814C0C3F824256A7DBCF1010F74
:108CE4004CEA0202C3F86C25C3F81405C3F80C154A
:108CF4001DD1AA68511C1FBF02F5E0714FF0A040BE
:108D04004FF0000C40F821C0E968481C0BD04FF02C
:108D1400A04C01208840CCF8080501F5E0704FF024
:108D2400030E4CF820E0C3F80815C3F810252C23D3
:108D34006343FA18C2F804902A69FA50B9F1000F93
:108D44002AD04FF48E7130682D7FFFF7A3FE306870
:108D54004FF4A271FFF79EFE32681E4BC2F8043333
:108D6400120B51B20029A8BF01F160404FEA45132C
:108D7400BABF194802F00F0500F56140DBB2B4BF79
:108D8400435580F8003302F01F02012303FA02F274
:108D94004909124B43F8212033680422C3F8002503
:108DA4002C2303FB04730022C3E9062283F8292041
:108DB4005A61012283F82A204046BDE8F8834FF027
:108DC4000808F9E74FF01108F6E700BFFC3200206D
:108DD400358B02008000020014ED00E000E100E0A9
:108DE4002DE9F843224F06794FF02C0909FB06744C
:108DF40080466569002D37D16261A16025624FF418
:108E04008E71006884F82850FFF744FED8F80000FB
:108E1400012383602146FFF745FE6368A1462BBB0F
:108E2400D8F80050226A63699A4212D3D8F8003005
:108E3400D3F81C21002AFBD00122DA6000202C2365
:108E440003FB067600237361BDE8F88394F82830A9
:108E540043B9D5F81C31002BF8D049462846FFF712
:108E640021FEDFE70F20EAE71120EDE72846EBE7D4
:108E7400FC3200200379044A2C2101FB03235869A6
:108E8400003018BF01207047FC3200202DE9F84360
:108E9400384E05792C2303FB056307465C6824B12F
:108EA40003684FF40170C3F808032C2303FB056324
:108EB400986950B1D86900283ED024B13B684FF47A
:108EC4000172C3F80423112034E09A61D960586216
:108ED400D8612C2303FB056393F829301BB910B91F
:108EE4003846FFF7EEFD4FF02C0909FB056838689A
:108EF400D8F80430002B34D14FF4A271FFF7CAFD27
:108F0400C1463868D0F82431D0F80821D0F844415B
:108F1400B2B90CB9002BF4D02C2202FB0565002257
:108F2400AA611BBB24BB95F829103B680122B1B18F
:108F34001A600020BDE8F8831961DA610120C8E7EE
:108F4400002BE9D1002CE7D14946FFF7CAFDD8F838
:108F54002430D8F818209A42D3D82346DCE75A6044
:108F6400E7E74FF40173C0F80433E2E70320E1E7D5
:108F74000F20DFE7FC3200200023435082B0435827
:108F84000193019B02B070471FB501238DF8003097
:108F9400044BCDE90110D3E900126846904705B0AF
:108FA4005DF804FB283300207FB5374AD2F82461EA
:108FB400002E48D010464FF49271FFF7DDFF0223D4
:108FC4008DF80030D2F88034C2F880340393D2F89C
:108FD4003C3502932D4BDA6801920022C3E9062244
:108FE4006846D3E900129047274AD2F844317BB14E
:108FF4004FF4A2711046FFF7BFFF244B996939B1B2
:109004000021C3E90611D968D2F83C05FFF7BCFF7B
:109014001D4AD2F82031A3B14FF490711046FFF7E6
:10902400ABFF1A4B596961B1D2F84C150291002279
:1090340099688DF8002001915A616846D3E90012BD
:10904400904704B070BDD2F81031002BCCD04FF44F
:1090540088711046FFF790FF0C4BD2F83C059969D4
:109064008842C1D1DC69D96864B1D2F8005225F0D4
:109074002005C2F800521A699C61DA60DE61FFF7CC
:1090840083FFB1E79C61FAE7002000402833002009
:109094002DE9F8435A4F06799146242202FB0672C1
:1090A400044692F820200D46002A40F0A28055493B
:1090B4000068FFF7CDFC8046002840F09D802968B9
:1090C4002368481C0BD04FF0A04001228A40C0F80E
:1090D400082501F5E0724FF0030C40F822C06868DF
:1090E400421C1FBF00F5E0724FF0A04C4FF0000E81
:1090F4004CF822E0AA6995F814C0C3F824256A7DC7
:10910400BCF1010F4CEA0202C3F86C25C3F80C153C
:10911400C3F814051DD1AA68511C1FBF02F5E071E4
:109124004FF0A0404FF0000C40F821C0E968481C03
:109134000BD04FF0A04C01208840CCF8080501F575
:10914400E0704FF0030E4CF820E0C3F80815C3F8A4
:10915400102524237343FA18C2F804902A69FA509C
:10916400B9F1000F34D04FF4887120682D7FFFF7D8
:1091740003FF4FF490712068FFF7FEFE4FF49271E5
:109184002068FFF7F9FE20684FF4A271FFF7F4FEA0
:1091940022681D4BC2F80433120B51B20029A8BF38
:1091A40001F160404FEA4513BABF184802F00F05B9
:1091B40000F56140DBB2B4BF435580F8003302F0E0
:1091C4001F02012303FA02F24909114B43F821203B
:1091D40023680822C3F80025242303FB0673002216
:1091E400C3E906225A61012283F820204046BDE8E3
:1091F400F8834FF00808F9E74FF01108F6E700BFCD
:1092040028330020AD8F02001003020014ED00E0AB
:1092140000E100E001F06043B3F1005F2DE9F041AB
:10922400074632D11C4B0679242505FB06359846A2
:109234006C6964BB6A61A96000684FF49071FFF7C0
:109244009BFE4FF4AC713868FFF796FE3B686A6981
:10925400A968C3F84415C3F8482501229A606A68CE
:10926400BAB9D3F82011D3F8582149B9002AF8D053
:109274000F20242303FB068600237361BDE8F081DD
:10928400002A14BF0F200020F3E71020F6E7112076
:10929400F4E72046F2E700BF283300200379044AAC
:1092A400242101FB03235869003018BF01207047B3
:1092B40028330020F8B501F06043B3F1005F0446A1
:1092C4000F465FD10379304D242101FB03514868D7
:1092D40020B121684FF40476C1F80863242101FB0E
:1092E40003539E6956B1D96900293AD020B1236845
:1092F4004FF40472C3F80423112031E09A61DF6053
:10930400DE614FF488712068FFF736FE4FF4A271D6
:109314002068FFF731FE2368C3F83475C3F8382595
:109324001EBB01221A602179242202FB01525268D9
:1093340012BBD3F81001D3F84421D3F824411043CD
:1093440002D1002CF5D00246242303FB015500234F
:109354009C4214BF032018469A42AB6118BF0F20E9
:10936400F8BD1F61DA610126CBE7D3F8002242F091
:109374002002C3F80022D6E74FF40472C3F8042392
:109384000020EDE71020EBE7283300200220FEF751
:10939400B5BF00002DE9F04781460D46FEF7CEFF2C
:1093A4000328044604D8012D04D025B3022D2FD060
:1093B400BDE8F087194D47003A18A918AE5C4A7801
:1093C40052B1DFF86880164842464FF40041FEF778
:1093D40093F808B988F800903B192B449A78114BFC
:1093E4001A55002EE4D0104B1B68002BE0D03046F9
:1093F400BDE8F04718470A48FEF7C4F8074B04EBEA
:10940400440213449E78074B1B5DB342D0D1E8E776
:10941400024B00EB40041C446678E2E7B0330020C2
:1094240070330020C9330020C43300204C330020A3
:1094340002210078FFF7AEBF08B5094B1B7853B182
:109444000020FEF731FF0120FEF72EFF0320BDE8C8
:109454000840FEF729BFBDE80840FEF731BF00BF52
:109464004D330020F8B57B4C237805461BB100230F
:109474002370FFF7E1FF172D00F28880DFE805F085
:109484000C17174354657680888D888D959A9A9A1F
:109494009A9AC4C9D1D9E4E4FFF7CEFF6E48FEF727
:1094A40071F86E4B002204461A702046F8BD002065
:1094B400FEF7E0FEF8B10020FEF7F6FE022D0CBF29
:1094C4004FF4E1614FF47A61644B1D704FF4004036
:1094D4004FF4FA740025E0FB01454FF47A7200233F
:1094E4002046294602F06EFD002201465A48BDE896
:1094F400F840FEF701B8FEF7CBFE022D0CBFC821E1
:109504004FF4C871E0E70020FEF7B4FE40B100203C
:10951400FEF7CAFE4FF44871504B03221A70D5E788
:10952400FEF7B6FEC821F7E70020FEF7A3FE38B128
:109534000020FEF7B9FE4FF47A61484B0422EDE7B0
:10954400FEF7A6FE4FF4C871F7E70020FEF792FE7F
:1095540048B10020FEF7A8FE404B05221A7041F6E0
:109564009A110022C2E7FEF793FEF5E70020FEF70A
:10957400C5FE3A4B06221A70002240F6CD41B5E7EB
:109584000020FEF785FE354B07221A7000248CE775
:1095940001202070FEF7B2FEEEE701202070FEF7F6
:1095A400ADFE00224FF48041A0E7FEF798FE2B4B5E
:1095B4000C22EAE72A482B4EFDF7E4FFD5F111050A
:1095C40004461CD0D8B9012D13D0C8235D434FF4F1
:1095D40000474FF4FA7000214FF47A720023C7FB5E
:1095E400050102F0EFFC224601461D48FDF784FF09
:1095F40004460220FEF74CFE0123337055E7022097
:10960400FEF752FE0023F8E7FFF716FF134B122272
:10961400BBE7FFF711FF0020FEF73AFE0F4B1322C2
:10962400B3E7FFF709FF0120FEF732FE0B4B1422CC
:10963400ABE7FFF701FF0020FEF72AFE0120FEF74B
:1096440027FE064B1522A0E7FEF749FE034B1D70CB
:109654009CE700BFC033002090330020C8330020B3
:10966400503300204D330020044B1B68DB0703D527
:10967400034B1878FFF7F6BE704700BFBC330020D9
:10968400C8330020032801D8FEF74ABE00207047E3
:10969400044B1B6813F0010301D0FFF7E3BE184627
:1096A400704700BFBC33002038B51C4B18601C4BFE
:1096B40010F00204054619601AD01A4B1A480E22FB
:1096C4001A700F22DA7010229A7111225A72042130
:1096D40040F26662FDF7DCFB044648B9FDF72CFC5A
:1096E400044628B90146114A1148FDF7F3FE044621
:1096F400EB0711D50120FEF739FE6CB921460D4A5E
:109704000D48FDF7E7FE044630B90C4A0C48012128
:10971400BDE83840FDF7DEBE204638BDBC3300202E
:10972400C4330020B0330020ECD50200359402008D
:1097340010D602006D96020014D602009193020026
:109744000CD60200032813D8012A0BD1012908D111
:1097540000F10E02D2B200EB40000C4B1A54002070
:10976400704700220129F6D04BB24BB1022901D037
:1097740007207047054B00EB400018444270EEE7A9
:10978400024900EB400008448270E8E7B03300204F
:10979400032808B512D8FEF7E3FD800000F1A040CD
:1097A400D0F8003723F44033C0F80037D0F800373E
:1097B40043F44033C0F80037002008BD0620FCE71E
:1097C40008B5012202210020FFF7BCFF08B10728D9
:1097D40010D1072202210120FFF7B4FF08B10728A6
:1097E40008D100210A220846FFF7ACFF10B1072870
:1097F40008BF002008BD00000388102B10B502D05C
:10980400112B1ED010BD1A4C2168B1B90122084693
:10981400FFF798FF08B1072824D10722022101206D
:10982400FFF790FF08B107281CD104220221002071
:10983400FFF788FF08B1072814D123680133236098
:10984400E0E70B4A1368013B1360002BDAD1FFF702
:10985400B7FF0028D6D0074B1B68002BD2D0BDE839
:1098640010401847034B1B68002BE6D09847E4E7E9
:10987400D4330020D033002008B50020FFF788FF40
:1098840008B1062806D10120FFF782FF10B106288F
:1098940008BF002008BD00000D4B10B518600C4631
:1098A40029B10120FFF7EEFE40B102232370094BDA
:1098B4001B6853B9BDE81040FFF782BFFFF7E2FE13
:1098C40008B10B23F2E72070F1E7002010BD00BFC0
:1098D400D0330020D433002076DF70477ADF70471E
:1098E4007CDF70477FDF70478FDF7047B1DF7047E1
:1098F40033DF7047FDF736BB08B50020FFF7C8FE1D
:1099040008B1FDF72FFBFFF7B7FF08B1FDF72AFBFE
:10991400FFF7EEFF18B1BDE80840FDF723BB08BD13
:109924000388212B13B504463BD01FD8112B28D014
:10993400132B3ED0102B32D1264B27482749C01A6F
:10994400C008000440F00300FDF770F80720FFF79B
:109954009FFE08B1FDF706FB214BA1882148198021
:1099640001F022FCD8B1FDF7FDFA18E0522B28D003
:10997400562B01D03B2B12D11321A088FFF7ACFF4B
:10998400F0E7144B14481849C01AC008000440F00A
:109994000300FDF74BF8124B4FF6FF721A8002B02A
:1099A40010BD002301A98088ADF80430FFF79CFFA7
:1099B400D8E70B4800231A4685210088FFF792FF59
:1099C400D0E7074800231A4619460088FFF78EFFA0
:1099D400C8E700BFCCCE0200F4CE020030D60200AD
:1099E400BE2A0020603700203AD602000D4B4A8878
:1099F4001B889A4214D10A8840F677239A420FD1E1
:109A04008B88094A09480A49033B9BB21380094AD7
:109A1400801AC00800041A4640F00300FDF713B88A
:109A2400704700BFBE2A0020BC2A0020F4CE0200EA
:109A340047D60200CCCE020008B503784BB9054BDB
:109A44003B211888FFF748FF18B1BDE80840FDF72F
:109A540089BA08BDBE2A0020072808B513D00A28F1
:109A64000DD0042819D10D4B13211888FFF734FFAA
:109A740030F0080311D0BDE80840FDF773BABDE823
:109A84000840FFF739BF054B1A884FF6FF739A4217
:109A940003D1034800F05EFFEAE708BDBE2A0020B8
:109AA400F034002008B548B103280BD10220FFF799
:109AB400EFFD38B1BDE80840FDF754BABDE80840F1
:109AC400FFF71ABF08BD00000378012B2DE9F3410D
:109AD40000F0AF802BB1022B00F0AB8002B0BDE8E8
:109AE400F081564C564D20782844FDF729FE237802
:109AF4000133DBB21D44237015F8012C0A2A05D06A
:109B04000D2A03D04F4A12889A42E7D84C484E4D4A
:109B140002F0ACFC002251EC100B4C4B01F04EFF58
:109B240000224B4B02F08EF801F00BFF494B2E78CC
:109B3400186007EE900A484BFDEEE77A17EE902A7C
:109B4400C3ED007A36B3012E3AD02378012B1ED907
:109B54002B78012B16D1414E414FDFF82081337809
:109B6400ADF806300DF106023B883E48414601F04F
:109B74008DFC082806D01328F1D0052802D008B19E
:109B8400FDF7F0F92B78002B4AD101232B70002329
:109B94002370A3E7A2F5D243783B44F250618B4291
:109BA40009D83149314802F0D5FB304802F076FD3E
:109BB4002F4B1870C9E72F4802F0ACFB2670C4E79E
:109BC400A2F58C43503B48F6A0418B4222D826494B
:109BD40029482A4E02F0BEFB274802F05FFD284BBD
:109BE40025491870224BDFF884C01A78002352FAF2
:109BF40080F0891A834204D1204802F04FFD174BAC
:109C0400D7E79A42CCBF13F80C70CF5C06F8017BFF
:109C14000133EFE71B4802F07DFB0023237094E738
:109C2400012BB4D100210F221448297002F0E1FC69
:109C3400ADE74068FDF796F950E700BFEC3400202B
:109C4400F4330020BC2A0020F33300200080764047
:109C540000005940E834002070390020ED34002021
:109C6400BE2A0020C02A0020E3D60200D8330020F8
:109C74006C370020E6D60200DE330020E4330020F7
:109C84006D3700200CD702002DE9F0410578064617
:109C940045BB154C154BDFF85880E41AE40824043E
:109CA40044F00104B28A95420AD33369134413F889
:109CB400013C0D2B16D10A20FDF758FD1128F9E7B8
:109CC4003369585DFDF752FD074648B11128F7D0B6
:109CD400024641462046FCF7ADFE3846FDF742F900
:109CE4000135DFE7BDE8F081F4CE0200CCCE0200FE
:109CF400B8D60200FDF736B908B50849084801F09E
:109D04003FF908B1FDF72EF9F721054801F04CF9A8
:109D140018B1BDE80840FDF725B908BDF199020066
:109D24004837002000B5744D0FCDB1B005AC0FC459
:109D340095E80300714B724A01934FF4807384E8F1
:109D44000300CDE9032302936E4A072301A905A862
:109D5400FDF79EFC08B1FDF705F94FF40041002022
:109D6400FCF7A0FC08B1FDF7FDF8FCF7D1FBFDF70B
:109D740081FB08B1FDF7F6F863490320FFF794FC73
:109D840008B1FDF7EFF805A90020FFF785FD08B13C
:109D9400FDF7E8F8FEF77AF808B1FDF7E3F801F00B
:109DA400F3FB08B1FDF7DEF8002305A901200593B4
:109DB40001F078FC08B1FDF7D5F805A801F040FDE5
:109DC40008B1FDF7CFF8112350488DF8043002F0A4
:109DD40065FC4E4982B201A8FFF782FD08B1FDF788
:109DE400C1F80021082205A802F003FC48494FF0FD
:109DF400C87305A8CDE90513FFF770FD08B1FDF799
:109E0400B1F8FFF779FF434B4348059305A901F0E7
:109E1400B9F908B1FDF7A6F8042200210DEB020000
:109E240002F0E7FB3D4B3E48019301A901F0B8FA6B
:109E340008B1FDF797F8AC22002105A802F0D9FB80
:109E440002238DF814304FF4A063364AADF816306F
:109E54000123ADF8603019928DF89030402244F21D
:109E64005063CDE9272305A92F4B30482E9300F0EA
:109E7400AFFB08B1FDF776F801212C4800F0A5FBF3
:109E84001C22002105A802F0B4FB00234FF4203269
:109E9400CDE90532ADF822304FF470228DF824302C
:109EA400234B07920A930322224B8DF8202005A806
:109EB4000B9300F06BFE08B1FDF754F81E4802F056
:109EC40029FA1E4B1E481F49C01AC008000440F05E
:109ED4000300FCF7ABFD0321144800F0F8FB08B1C4
:109EE400FDF740F8184802F015FAFCF735FC002895
:109EF400FBD1FDF7E1FFF8E718D602006E3700202A
:109F04006E380020CD9A02005D9A020063D60200EA
:109F140010003C00F9980200603700208D9C02007C
:109F2400C02A0020B82A0020A99A0200F034002098
:109F34003D9A0200F99C020073D60200CCCE0200C6
:109F4400F4CE020085D60200AED602000369C168D1
:109F54008B429DBF8268D21802F1FF3203F1FF33B6
:109F640094BF501A581A70472DE9F041D0E9027491
:109F740005463E1B4068964220448846144404D952
:109F840002F00EFBEC60BDE8F0813246E41B02F007
:109F940007FB224608EB06016868F1E72DE9F84360
:109FA400C5680646894617464FF000083469B36809
:109FB4007068A54228BFE418013C621B5C1BBC42CC
:109FC40028BF3C46944228BF1446494628442246AA
:109FD40002F0E6FAB3682544AB4208BF00253F1BF4
:109FE400A044A144F560E1D14046BDE8F8830000F7
:109FF40010B5114C114AA2610223C4E90433104B79
:10A00400E361A2644FF400730E4A2362E264002306
:10A0140010220D49A362E01D6362E362A3656365D8
:10A02400E365226502F018FB0849204602F014FBA0
:10A034002023A37110BD00BF7439002033D7020060
:10A04400FC390020EC3900203CD7020040D7020044
:10A05400F8B5184C182300FB033503FB00402544D6
:10A06400C46A012C0F46164611D024B1022C1BD011
:10A0740000242046F8BD2846FFF768FFB042F8D315
:10A08400324639462846FFF76FFF3446F1E7284643
:10A09400FFF75CFF8642344628BF04462246394611
:10A0A4002846FFF761FFE4E72846BDE8F840FFF7DC
:10A0B40075BF00BF74390020FFF79ABF6DDF70478A
:10A0C40079DF70477DDF704764DF70472DE9F74F14
:10A0D4000C9CBDF834B02788002580468A469146FA
:10A0E4002E46B8F80020B2420BDC35B12288013A82
:10A0F400D21B92B2FF2A39D8DA55002003B0BDE84A
:10A10400F08FD8F8042052F82600019000220DF1B7
:10A11400030101A8FFF7D8FF0028EFD19DF8032021
:10A124004A4521D12288002D14BF0020022002EBD1
:10A1340009010144594519DC3DB9013292B222802A
:10A1440003F802A022880132228022880DF1030143
:10A154001A4401A8FFF7B8FF0028CFD121889DF841
:10A1640003200A44228001250136BAE70C20C5E702
:10A174002DE9F341089CBDF824501746CDE900456C
:10A1840002220646FFF7A2FF48B91022394630469C
:10A19400CDE9084502B0BDE8F041FFF797BF02B032
:10A1A400BDE8F0812DE9F04F00231688138090F864
:10A1B4002D3085B007460D46144653B3082E01D8FA
:10A1C4000C2028E102A8FFF779FF002840F0238142
:10A1D40013880822CA54238801339BB21B2223808C
:10A1E400CA542088013080B2208006220DF1090172
:10A1F400284402F0D5F923889DF8082006339BB241
:10A2040012F0FE0218BF01222380EA54238801338E
:10A214002380BB78FBB123880433B342D0D802A88F
:10A22400FFF74EFF002840F0F68023880322EA540B
:10A23400238801339BB219222380EA542388BDF872
:10A24400082001339BB2E9182380EA54120A4A70A9
:10A25400238802332380FA789AB12388D91CB14227
:10A26400AED80221E954238801339BB20121238013
:10A27400E95423880B449BB22380EA5423880B447B
:10A2840023807A68AAB12388D91CB14298D80221C4
:10A2940092F90020E954238801339BB20A212380D8
:10A2A400E954238801339BB22380EA542388013381
:10A2B40023803B89002B40F0A2803B8A5BB1CDE92F
:10A2C40000462B460722032107F11000FFF750FF39
:10A2D400002840F0A0803B8B5BB1CDE900462B46C3
:10A2E4001522142107F11800FFF742FF002840F05F
:10A2F40092803A6A002A40F09180D7F82480B8F11D
:10A30400000F30D0B8F804302188981C8A1C02440D
:10A31400B2423FF655AFFE283FF652AF03336B54BB
:10A32400238801339BB2FF222380EA54238801331C
:10A334009BB22380B8F80020EA54E918120A4A7044
:10A344002088023080B22080B8F804205AB1D8F8AE
:10A35400081000296CD0284402F022F92388B8F8A8
:10A3640004201344238097F82C30002B40F09B806A
:10A37400387800284FD03B88012B59D0228802F12D
:10A38400020CB4453FF61CAF012805D17B7802339B
:10A3940013449E42FFF414AF023EB61AB6B202A9A9
:10A3A40005EB0C00ADF80860FFF78CFE98BB39781C
:10A3B400BDF80820022900F0BB807B78934202D3C9
:10A3C400B24240F2B380012940F0B4809BB29E4275
:10A3D400C0F0B080ADF808300821BDF80830FE2B7D
:10A3E4003FF6EEAE22880133AB542288013292B29A
:10A3F4002280A95422881344238000200BE0CDE955
:10A4040000462B460622022107F10800FFF7B0FEA2
:10A4140000283FF452AF05B0BDE8F08FB4F800C097
:10A424000CF10603B3423FF6CBAE1188052901D8DF
:10A434000720F0E76FF4486E01EB0E039BB24FF276
:10A444007D3E7345F4D95388052BF1D96FF44860E8
:10A45400181880B27045EBD94FF6FF70814203D0D3
:10A46400834201D09942E3D8052305F80C302388B0
:10A4740001339BB212212380E954238801339BB218
:10A4840023801188E954E818090A417023880233AB
:10A494009BB223805288EA54E918120A4A7023882E
:10A4A4000233238029E7BB6A002BC1D04FF0000997
:10A4B4004FF00C0A4FF0160B97F82C305FFA89F224
:10A4C40093427FF655AFB96A0AFB02F201EB020828
:10A4D400B8F80430981CFE283FF672AE2088033387
:10A4E4002B54238801339BB2238005F803B02388BF
:10A4F40001339BB223808A5AEA54E918120A4A703B
:10A504002088023080B22080B8F804205AB1D8F8EC
:10A51400081000298CD0284402F042F82388B8F8A7
:10A5240004201344238009F10109C5E7092154E7F4
:10A53400B242FBD9ADF808604EE770B5C0B14AB17C
:10A5440016880024B44203D305196D789D4208D0BF
:10A55400A14201D800200BE0055D01352C44A4B2D2
:10A56400F0E7A142F6D9A31C1380005D013880B244
:10A5740070BD13B50023ADF8063013460DF1060285
:10A584000446FFF7DAFF10B1BDF80600204402B01C
:10A5940010BD72DF704773DF704774DF704738B5E2
:10A5A400012204460D46B0F83812D0F83402FFF701
:10A5B400E0FF00B1057004F13C0204F50D7104F1F3
:10A5C4005400BDE83840FFF7E4BF80F8301070470E
:10A5D400F8B504460F46002975D0002873D091F8C9
:10A5E4007A301BB191F89830002B6ED1D7F8A03097
:10A5F400042B6AD0D7F89C30042B66D007F1780678
:10A604000FCE4FF0000C251D84F802C00FC50FCEED
:10A614000FC596E8070085E8070084F830C0D7F82E
:10A62400A4306363D7F8A830A3634FF6FF7504F52D
:10A634000D73C4F84432A4F848520722614604F268
:10A644004A2001F0D6FF23780BB984F8545094F8CB
:10A654002430002B14BFEE231F2304F15501C4F84A
:10A664003412A4F8383204F50E723846FFF79AFD16
:10A6740040BB94F82430002B14BFEE231F2304F2B4
:10A684004311C4F83C12A4F8403204F5107207F1E7
:10A694003C00FFF787FDA8B9A369A4F848304FF43C
:10A6A40080720123A4F85020626920646264014628
:10A6B40084F83C3004F13C0204F15400FFF769FFD4
:10A6C40000B92370F8BD0E20FCE70720FAE7F8B5BF
:10A6D400077804460D46002F00F0048100F24A2654
:10A6E400A17007220021304601F083FFE38813B1F3
:10A6F400A378012B04D0E3794BB1A378022B06D1C4
:10A70400636BA3B1012284F8512208209847334691
:10A7140004F5147113F8012F12B98B42FAD11746BC
:10A724006B1E032B52D8DFE803F0050B0F1284F8DD
:10A734005132ECE7A3791BB194F8243003B95FB923
:10A74400E3790BB1002F43D1237A002B42D1637AF2
:10A75400002B0CBF00250425636BA570002B3BD098
:10A76400033D012D38D86279002A35D094F852225D
:10A7740092BB84F85422012284F85322072098477C
:10A7840004F13C0518220021284601F032FFE36A57
:10A7940094F82420581E0121022828BF0B4684F86F
:10A7A4003C1084F8513032B1884296BFA36A84F8D1
:10A7B400521084F85230A178002384F850300429D0
:10A7C4001BD8DFE801F0770D223559000025C3E7D7
:10A7D4000225C1E70325BFE7002384F85332CFE7FE
:10A7E400C4F84432C4E910630223012284F83C30E3
:10A7F400802384F83120A4F84830A378002B5CD15E
:10A80400636B002B6AD1002067E00223002A84F8DE
:10A81400313014BF0723032384F83C302369A4F8A0
:10A8240048300023C4F84432E36826646364E4E7F0
:10A8340063696364A369A4F8483012B1062384F8F9
:10A844003C306379B3B194F852329BB994F85432E2
:10A8540083B1022384F8503004212046FFF79FFE81
:10A864000028CAD1052384F8313004F50D73C4F8E7
:10A874004432C2E70323F6E7E3696364236AA4F876
:10A88400483012B1062384F83C30637983B194F8DC
:10A8940052326BB994F8543253B1022384F85030D5
:10A8A40004212046FFF77BFE0028A6D10623DAE721
:10A8B4000423D8E784F831309FE72A46D4F84412B9
:10A8C40004F15400FFF765FE38B994F8301094F899
:10A8D4005400FFF760FE002892D0F8BD94F83100D0
:10A8E400984790E70820F8E70388112B10B50C4629
:10A8F4000AD0262B1FD0102B05D1C37B012B02D1EC
:10A904008388A1F8483210BD0022838881F852223E
:10A91400B1F848229A42F6D10B79002BF3D10121E8
:10A924002046FFF7D4FE0028EDD0A36B002BEAD01D
:10A93400BDE810401847037A013B012BE3D889781E
:10A9440005230131B1FBF3F303EB8303C91AC9B245
:10A95400E6E7704738B5044690F85400FFF71DFE4B
:10A96400012384F85232002384F8543284F850309E
:10A9740006212046FFF713FE054638B9A178204684
:10A98400FFF7A5FE10B1A36B03B19847284638BD65
:10A9940075DF704776DF70477ADF70477BDF70477B
:10A9A400034B1A8882420CBF18460020704700BF30
:10A9B400183C0020024B9B6903B11847704700BF45
:10A9C400FC3B002037B585B22846FFF7E9FF034674
:10A9D40070B1164C017A227B91420BD200F10A012C
:10A9E4002846FFF7D5FFE8B1112801D0FFF7E2FFB1
:10A9F40003B030BD237C0022027243B13B212846C0
:10AA0400FFF7C8FF30F0080301D0FFF7D3FF6369F5
:10AA1400002BEDD000228DF80420ADF8065001A8DB
:10AA24009847E5E71A7A01321A72E1E7FC3B002005
:10AA340013B50B46497A0F4C024669B9D4E90110A3
:10AA44001C7A002C18BF01465868FCF755FD08B164
:10AA5400FFF7B0FF02B010BD002119726369002B2B
:10AA6400F8D00121ADF806008DF8041001A898472C
:10AA7400F0E700BFFC3B00204B8802889A4213D8C1
:10AA840042889A4210D380888A8840F2F31398420D
:10AA940094BF031AC31A934206D800F2F3109042EB
:10AAA40034BF002001207047002070470388112B19
:10AAB40070B5014648D002D8102B1ED070BD122BA1
:10AAC40052D0502BFAD12F4BC288DB899A42F5D150
:10AAD400038A022BF2D186883046FFF761FF0546D0
:10AAE4000028EBD001F1120000F05BF930BB68687C
:10AAF400FCF748FD0028E1D009E0C37B012BDDD140
:10AB04004FF6FF70FFF74CFF054620B90420BDE85F
:10AB14007040FFF74FBF1C4A8E88068000230372E3
:10AB24001368C5F80A300A30536843601031FFF7E0
:10AB3400A3FF144B6872DB89002BBFD12946304632
:10AB4400BDE87040FFF774BF8088FFF729FF044613
:10AB54000028B3D04068FCF715FD08B1FFF72AFFC1
:10AB64004FF6FF732380A9E786883046FFF718FF66
:10AB740005460028A2D008310A30FFF77DFF68722D
:10AB8400DCE700BFFC3B00202C3C0020F8B5064667
:10AB940048B305460FCD154F3C460FC495E8070052
:10ABA40084E807003068124B3B60B0B1FFF7F4FE55
:10ABB400C0B931680A681A604A685A600D480E4A7A
:10ABC4004FF6FF7303800D4B40F8043F0021FCF760
:10ABD40081FC002818BF032004E01846FFF7DEFEBE
:10ABE4000028EBD0F8BD0E20FCE700BFFC3B0020A2
:10ABF4002C3C0020183C0020C9A90200343C002051
:10AC040073B50191019C06466CB100252C4629467A
:10AC140001A8FCF720FE18B106EB440301349D8023
:10AC24000135142DF3D13046346002B070BD0000FC
:10AC34002DE9F04703888488112B8CB006463CD05C
:10AC44001A2B3FD0102B17D1274DAB68DB43009351
:10AC540069686846FCF728FE009901A8FFF7D0FF51
:10AC64000DF108094FF00008019B984507D3132CF8
:10AC740013D90420FCF776F90CB0BDE8F08739F855
:10AC840002AB00270137514605EB8700FCF7D9FDDD
:10AC94001D2FF7D108F10108E6E721461348FCF718
:10ACA400C7FD21461248FCF7C3FDF37B012BE3D01B
:10ACB40010482146FCF7BCFDDEE70C482146FCF7B2
:10ACC400C0FDD9E7057A0C482D09012D214606D986
:10ACD400FCF7AEFD022D21460848F0D0EAE7FCF768
:10ACE400B0FD21460548EAE7543C00205C3C0020C6
:10ACF400583C0020603C0020643C0020683C00205C
:10AD04001328014602D80248FCF7A5BD002070476D
:10AD1400583C002010B50446FFF7F2FF002814BF8A
:10AD24002046142010BD70B5054616460AB90E20FB
:10AD340070BD002313600028F9D00368002BF6D0FF
:10AD4400C38813F003040FD10846FFF7E3FFC0B232
:10AD540014280BD02B7983420AD9EB882A6800FB8C
:10AD6400032333602046E3E70720E1E70520DFE71C
:10AD74000420DDE7AADF7047002301380B700428A4
:10AD840006D8DFE800F00306080A0C0011230B7054
:10AD940070472123FBE73123F9E71223F7E7222346
:10ADA400F5E7007800F001007047F0B58B7891B0BA
:10ADB400002B0C4608BF01238DF80E3005460B8886
:10ADC400ADF80C30002116466846032201F011FC50
:10ADD4006946607CFFF7D0FF0DF10101A07CFFF70D
:10ADE400CBFF9DF80230E27B62F3C303227C62F363
:10ADF4000413227B62F30003227D002A14BF022283
:10AE0400012262F3420300211C2209A88DF80230BA
:10AE140001F0EFFB637B13F0300F15D002AF032278
:10AE24000021384601F0E5FB0DF10901E07CFFF754
:10AE3400A3FF11238DF808309DF80A300E970122E4
:10AE440062F342038DF80A30637B8DF824301422B8
:10AE5400A37B8DF82530002104A801F0CAFB03ABC5
:10AE64000493A388ADF81C30A368CDF814D01BB1AB
:10AE7400E288ADF818200893A369002B2ED001AF07
:10AE840003220021384601F0B4FBA3691A88ADF807
:10AE94002C205A88187BADF82E2039465A680A921D
:10AEA4000D97FFF769FFA3690DF10501587BFFF7C3
:10AEB40063FFA2699DF80630917A61F3C303D17AE6
:10AEC40061F30413117A927B002A61F3000314BF27
:10AED4000222012262F342038DF80630E36903B1D2
:10AEE4000C93334604AA09A92846FFF743FF11B07F
:10AEF400F0BD90DF7047A5DF7047B5DF70470000F5
:10AF04007FB50023ADF80810ADF80A106A4602A90F
:10AF1400064603930093ADF80430FFF7EAFF0546B5
:10AF240000B3124B124CE41AE408FDF729F8240488
:10AF340044F00104034632460E492046FBF783FDE4
:10AF4400BDF80020BDF8023052EA030103D00A49DB
:10AF54002046FBF778FDBDF804201AB107492046C6
:10AF6400FBF768FD284604B070BD00BFCCCE0200DC
:10AF74000CCF020047D7020091D70200D0D70200BD
:10AF840080B14FF0F7130360FB230371F723C380F1
:10AF94001723038141F6FB3200230161438182813F
:10AFA400184670470E20704730B1A1F11703E02B0B
:10AFB40004D80180002070470E2070470720704796
:10AFC40013B5034680880C46A0B91A88232A00F0DA
:10AFD400A48011D8102A22D0112A51D0A37A4BB1BF
:10AFE400E1880020FFF787FF002840F09C804FF4A1
:10AFF4008073638102B010BD3A2A4AD0552A60D0CA
:10B00400242AEBD11A7A0B694A73002BE6D04DF649
:10B014007A21ADF8040000918DF8042079E0DB7BFF
:10B024000A790A73012B13D0022B14D0E1882389E7
:10B034008B4205D20020FFF75EFF70B90123E37253
:10B04400217B637B8B42C9D20020FFF759FFC5E700
:10B054000B88E380EAE74B88FBE7112802D1012340
:10B06400A372EDE7FCF78CFF374A384B38499B1A3B
:10B07400DB081B04024643F00100FBF7DBFCDFE7BF
:10B08400F723CB8017230B8141F6FB3348818B8157
:10B09400A4E75B89CA88934228BF1346172B0A6921
:10B0A40038BF17230B814AB1C97A39B140F67721E9
:10B0B4000091ADF80430694620469047002363812F
:10B0C4008CE7DB88C988A072172B38BF17238B4203
:10B0D40028BF0B462381FFF710FF60B1FCF750FF38
:10B0E400194A1A4B1B499B1ADB081B04024643F0FE
:10B0F4000100FBF79FFCE37A002B7FF46FAF236919
:10B10400002B3FF46BAF40F6772200922289ADF812
:10B11400042069462046984760E7197A237B9942C0
:10B1240028BF194691E711283FF464AFFCF728FFC4
:10B13400054A064B06499B1ADB081B04024643F0EA
:10B144000100FBF777FC55E7CCCE02000CCF0200E0
:10B1540026D8020057D80200B0DF704766DF704778
:10B16400034610B500214088FFF7F8FF024608B9EE
:10B174001A7210BD112801D10122F9E75B68BDE8FC
:10B184001040184760B159B10378DE2B0AD00B6820
:10B194004360DE2303704FF6FF7343800020704743
:10B1A4000E2070470820704728B10378DE2B04D1A5
:10B1B4004180002070470E20704708207047F0B58A
:10B1C400054685B00C46F1B1E8B10B78DE2B1AD1F7
:10B1D40082884B889A4204D10B7A13B10846FFF750
:10B1E400BFFF2B88112B32D0512B0ED0012B0AD14B
:10B1F4002B7A012B07D1A9886288914203D123724B
:10B204002046FFF7ADFF05B0F0BDAE886388B342BA
:10B21400F9D1AF79022FF6D1AD7B2B1F022BF2D8D7
:10B2240000211022684601F0E4F9052D14BF4FF403
:10B23400C0730023694630468DF80070ADF80430C1
:10B24400FFF78AFF0028DED063689847DBE763884E
:10B25400AA889A4204BF4FF6FF736380D3E7A8DF3E
:10B264007047ADDF7047AEDF704762DF704770B57F
:10B2740005468AB00C46002962D0002860D00388B5
:10B28400502B37D0572B72D0102B59D1818860693D
:10B29400002601AA0196FFF746FD082231460DEB70
:10B2A400020001F0A6F9022302AA218AA888CDF897
:10B2B4000CD00293FFF7D5FF002841D1A369002BDE
:10B2C4003ED00398FFF76DFD002839D0019B0BB1E8
:10B2D40001221A701822002104A801F08AF902231D
:10B2E4008DF81030AB88ADF81830019B05940793A6
:10B2F400A36923E08188606902AAFFF714FD18227C
:10B30400002104A801F075F9AB88ADF81830218943
:10B31400EB88029A05949942079218D12E8A022E3C
:10B3240015D16AB105F11200FFF73BFD029B48B14C
:10B3340001221A708DF81060A3690BB104A8984714
:10B344000AB070BD187003238DF81030F4E7A28999
:10B354009A42F5D1A369002BF2D000228DF8102077
:10B3640005F1120208922A8AADF82420E6E78188C2
:10B37400606902AAFFF7D7FC01460028E0D1029BCE
:10B384001B78002BDCD0182204A801F032F9012329
:10B394008DF81030AB88ADF818300594029BA6E701
:10B3A400F0B5384B8FB002AA04460E4603F1100CD8
:10B3B400174618685968154603C5083363452A4675
:10B3C400F7D1002C5BD0002E59D03368A3612146FD
:10B3D4003846FFF74AFF00284FD12246012512F8CC
:10B3E400023B8DF8063001A92846ADF80450FFF75A
:10B3F40036FF002841D10146202206A801F0F9F8C1
:10B4040022460223ADF8183012F80C3B8DF81A309E
:10B41400BDF824301C4E6088079603F4734343F44C
:10B4240040632B4306A9ADF824308DF829508DF8DC
:10B434002A50FFF7BAFC00BB0146202206A801F0FF
:10B44400D8F822460323ADF8183012F8043B8DF8DF
:10B454001A30BDF824306088079603F46F4343F430
:10B4640080532B43ADF8243006A940F201138DF824
:10B474002950ADF82A30FFF798FC0FB0F0BD0E202C
:10B48400FBE700BF93D80200F4000100F0B50F46BB
:10B4940087B016461C46054618B301AA19464069EA
:10B4A400FFF741FCD8B94FF6FF739C421BD0019BB8
:10B4B400CBB11B78CBB13388F42B18D801461022BA
:10B4C40002A801F096F8AB88ADF8083002A9012370
:10B4D4002046CDE904678DF80A30FFF7C4FE07B0B3
:10B4E400F0BD0E20FBE70520F9E70820F7E7072069
:10B4F400F5E710DF7047000013B5044609496846B4
:10B50400FCF709FD019808B902B010BDD0E900317B
:10B514002046984718B16846FCF707FDF2E711206A
:10B52400F2E700BFB0D8020013B5044607496846E5
:10B53400FCF7F1FC019B0BB902B010BD2046D3E926
:10B54400002190476846FCF7F0FCF3E7C8D80200F6
:10B554000B4991F816335A09EC231341DB0706D53E
:10B56400084B9A683AB94FF480030B60704742F273
:10B574000200FBF7F7BC1A6842F480021A607047B5
:10B5840000E100E054320020F7B5194F3C7864BB69
:10B59400184E012520463570FFF7AEFF112821D043
:10B5A4002046FFF7C1FF144B8DF803401868019043
:10B5B4000DF10300FCF702F9104901A8FFF799FF08
:10B5C4000446B0FA80F0400938709DF80300FCF797
:10B5D40019F93CB90A4B34701C70FFF7B9FF2846BF
:10B5E400FFF7A2FF204603B0F0BD0824FAE700BF2E
:10B5F400CD3C0020CC3C0020ABD80200856F02007B
:10B60400CE3C0020014B1878704700BFCD3C002091
:10B6140007B508496846FCF77EFC019B13B903B0E3
:10B624005DF804FBD3E9002090476846FCF77DFCF5
:10B63400F3E700BFBCD80200FFF7EABF60DF704742
:10B6440069DF704761DF704730B5114DADF5017D9D
:10B654004FF4FA740DF1020103A8ADF80240FFF7AC
:10B66400F1FF70B9294601A8FCF755FC029B002B99
:10B67400F0D003A8D3E90021904701A8FCF755FCBA
:10B68400F4E7052801D0FBF76DFC0DF5017D30BD15
:10B694004CDB0200024B1B780BB1FFF7D5BF7047A0
:10B6A400CF3C002030B5054685B00C46002900F09B
:10B6B400B3805A4B0B600C22002101A800F099FFC3
:10B6C40001238DF8063022688DF80450062301A961
:10B6D4002020ADF80830FFF7B3FF60B1FCF750FC51
:10B6E4004F4A504B50499B1ADB081B04024643F057
:10B6F4000100FBF79FF90C22002101A800F079FF5B
:10B7040001238DF805302268002301A94020ADF8FB
:10B714000630FFF795FF60B1FCF732FC404A414B1D
:10B7240042499B1ADB081B04024643F00100FBF765
:10B7340081F90C22002101A800F05BFFF7232268A5
:10B744008DF8045001A92320ADF80630FFF778FFE7
:10B7540060B1FCF715FC324A324B35499B1ADB08C1
:10B764001B04024643F00100FBF764F90C2200219C
:10B7740001A800F03EFF012022688DF8040001A911
:10B78400FFF75EFF60B1FCF7FBFB254A254B294917
:10B794009B1ADB081B04024643F00100FBF74AF93D
:10B7A4000C22002101A800F024FF4FF4B0632268AA
:10B7B400019301A9A120FFF743FF60B1FCF7E0FB6F
:10B7C400174A184B1C499B1ADB081B04024643F01A
:10B7D4000100FBF72FF90C22002101A800F009FF5A
:10B7E4009DF8043022686FF3000301A9A0208DF8AE
:10B7F4000430FFF725FF68B1FCF7C2FB084A094B88
:10B804000E499B1ADB081B04024643F00100FBF7B8
:10B8140011F9002005B030BD0E20FBE7982A002066
:10B82400CCCE02001CCF0200DCD8020022D90200D8
:10B834006ED90200B5D9020001DA020052DA020020
:10B84400F8B506460768FFF7F9FE3368BB420546BC
:10B854001DD9194B194C1A49E41AE408240444F07C
:10B8640002042046FBF7E2F8336816493A462046BC
:10B87400FBF7E9F84FF080533268D3F80C311249E2
:10B884009B0203F100539A1A2046FBF7D3F825B91B
:10B894000E4B01221A702846F8BD2846FCF770FBAF
:10B8A400054A064B0A499B1ADB081B04024643F06F
:10B8B4000100FBF7BFF8EEE7CCCE02001CCF02007C
:10B8C400A5DA0200D4DA020005DB0200CF3C002036
:10B8D4002FDB02004BDF70471FB50D4C01A8FFF7AB
:10B8E400F9FF70B9214602A8FCF715FB039B002B56
:10B8F400F4D00198D3E90021904702A8FCF715FB86
:10B90400F4E7052801D0FBF72DFB04B010BD00BF00
:10B9140064DB0200004204BF0146704710F000429D
:10B924004FEA125242F4806242F01D0200D54042B6
:10B93400B0FA80F18840521AC30A400503EB025161
:10B9440070474FF4001313EB410F24D24FEA410226
:10B95400B2F1E04324BFB3F5001CDCF1FE5C0DD969
:10B9640001F000414FEAC00241EA5070B2F1004FC9
:10B9740040EB830008BF20F00100704711F0804FB6
:10B9840004BF01F00040704701F0004040F0FE4069
:10B9940040F40000704701D10042F5D049004FEA5D
:10B9A400C10141EA10704FEA300040F48000704752
:10B9B40081F0004183F0004383F00043F0B491EA46
:10B9C400030F00F18E80841A71EB030603D212195F
:10B9D4007341001BB1414FF07F4646F4600616EAFE
:10B9E400410F08BF62E0B6EB410F98BF69E04FEA30
:10B9F4001154A4EB1357B14341F4801116EA430FD9
:10BA040007BF00230022B34343F48013D7F1200679
:10BA140034D303FA06F5401941F1000122FA07F57F
:10BA2400401923FA07F541EB050102FA06F211F475
:10BA3400001F19D121F4801101EB0451F0BCB2F1C3
:10BA4400004F08BF10EA500F50F1000041F100010F
:10BA54004FF07F4343F46003B3EB410F88BF70475B
:10BA6400090D09050020704749085FEA30005FEAC4
:10BA7400320228BF42F001020134DBE7203F402FAD
:10BA840019D223FA07F5401941F10001C7F1200644
:10BA9400124218BF012203FA06F52A43C7E711EA46
:10BAA400560F04BF00200021F0BC704701F0004194
:10BAB4000020F0BC704721F4801101EB0451F0BC6C
:10BAC4007047004218BF41F00101B6EB410F04BFBB
